{
  "_format": "hh-sol-artifact-1",
  "contractName": "BlackJack",
  "sourceName": "contracts/BlackJack.sol",
  "abi": [
    {
      "anonymous": false,
      "inputs": [
        {
          "indexed": true,
          "internalType": "address",
          "name": "player",
          "type": "address"
        },
        {
          "indexed": false,
          "internalType": "uint256",
          "name": "amount",
          "type": "uint256"
        }
      ],
      "name": "BetPlaced",
      "type": "event"
    },
    {
      "anonymous": false,
      "inputs": [
        {
          "indexed": true,
          "internalType": "address",
          "name": "player",
          "type": "address"
        },
        {
          "indexed": false,
          "internalType": "uint256",
          "name": "card",
          "type": "uint256"
        },
        {
          "indexed": false,
          "internalType": "uint256",
          "name": "playerScore",
          "type": "uint256"
        },
        {
          "indexed": false,
          "internalType": "uint256",
          "name": "dealerScore",
          "type": "uint256"
        }
      ],
      "name": "CardDealt",
      "type": "event"
    },
    {
      "anonymous": false,
      "inputs": [
        {
          "indexed": true,
          "internalType": "address",
          "name": "player",
          "type": "address"
        },
        {
          "indexed": false,
          "internalType": "uint256",
          "name": "amount",
          "type": "uint256"
        }
      ],
      "name": "CashOut",
      "type": "event"
    },
    {
      "anonymous": false,
      "inputs": [
        {
          "indexed": true,
          "internalType": "address",
          "name": "player",
          "type": "address"
        },
        {
          "indexed": false,
          "internalType": "bool",
          "name": "isWin",
          "type": "bool"
        },
        {
          "indexed": false,
          "internalType": "uint256",
          "name": "winAmount",
          "type": "uint256"
        }
      ],
      "name": "GameEnded",
      "type": "event"
    },
    {
      "anonymous": false,
      "inputs": [
        {
          "indexed": true,
          "internalType": "address",
          "name": "player",
          "type": "address"
        },
        {
          "indexed": false,
          "internalType": "uint256",
          "name": "bet",
          "type": "uint256"
        }
      ],
      "name": "GameStarted",
      "type": "event"
    },
    {
      "inputs": [],
      "name": "BLACKJACK_PAYOUT",
      "outputs": [
        {
          "internalType": "uint256",
          "name": "",
          "type": "uint256"
        }
      ],
      "stateMutability": "view",
      "type": "function"
    },
    {
      "inputs": [],
      "name": "HOUSE_EDGE",
      "outputs": [
        {
          "internalType": "uint256",
          "name": "",
          "type": "uint256"
        }
      ],
      "stateMutability": "view",
      "type": "function"
    },
    {
      "inputs": [],
      "name": "MAX_BET",
      "outputs": [
        {
          "internalType": "uint256",
          "name": "",
          "type": "uint256"
        }
      ],
      "stateMutability": "view",
      "type": "function"
    },
    {
      "inputs": [],
      "name": "MIN_BET",
      "outputs": [
        {
          "internalType": "uint256",
          "name": "",
          "type": "uint256"
        }
      ],
      "stateMutability": "view",
      "type": "function"
    },
    {
      "inputs": [
        {
          "internalType": "address",
          "name": "",
          "type": "address"
        }
      ],
      "name": "activeGames",
      "outputs": [
        {
          "internalType": "uint256",
          "name": "bet",
          "type": "uint256"
        },
        {
          "internalType": "uint256",
          "name": "playerScore",
          "type": "uint256"
        },
        {
          "internalType": "uint256",
          "name": "dealerScore",
          "type": "uint256"
        },
        {
          "internalType": "bool",
          "name": "isActive",
          "type": "bool"
        },
        {
          "internalType": "bool",
          "name": "isWin",
          "type": "bool"
        },
        {
          "internalType": "uint256",
          "name": "winAmount",
          "type": "uint256"
        },
        {
          "internalType": "uint256",
          "name": "timestamp",
          "type": "uint256"
        }
      ],
      "stateMutability": "view",
      "type": "function"
    },
    {
      "inputs": [],
      "name": "cashOut",
      "outputs": [],
      "stateMutability": "nonpayable",
      "type": "function"
    },
    {
      "inputs": [],
      "name": "dealCards",
      "outputs": [],
      "stateMutability": "nonpayable",
      "type": "function"
    },
    {
      "inputs": [
        {
          "internalType": "address",
          "name": "player",
          "type": "address"
        }
      ],
      "name": "getActiveGame",
      "outputs": [
        {
          "components": [
            {
              "internalType": "uint256",
              "name": "bet",
              "type": "uint256"
            },
            {
              "internalType": "uint256[]",
              "name": "playerCards",
              "type": "uint256[]"
            },
            {
              "internalType": "uint256[]",
              "name": "dealerCards",
              "type": "uint256[]"
            },
            {
              "internalType": "uint256",
              "name": "playerScore",
              "type": "uint256"
            },
            {
              "internalType": "uint256",
              "name": "dealerScore",
              "type": "uint256"
            },
            {
              "internalType": "bool",
              "name": "isActive",
              "type": "bool"
            },
            {
              "internalType": "bool",
              "name": "isWin",
              "type": "bool"
            },
            {
              "internalType": "uint256",
              "name": "winAmount",
              "type": "uint256"
            },
            {
              "internalType": "uint256",
              "name": "timestamp",
              "type": "uint256"
            }
          ],
          "internalType": "struct BlackJack.Game",
          "name": "",
          "type": "tuple"
        }
      ],
      "stateMutability": "view",
      "type": "function"
    },
    {
      "inputs": [],
      "name": "getContractBalance",
      "outputs": [
        {
          "internalType": "uint256",
          "name": "",
          "type": "uint256"
        }
      ],
      "stateMutability": "view",
      "type": "function"
    },
    {
      "inputs": [
        {
          "internalType": "address",
          "name": "player",
          "type": "address"
        }
      ],
      "name": "getPlayerBalance",
      "outputs": [
        {
          "internalType": "uint256",
          "name": "",
          "type": "uint256"
        }
      ],
      "stateMutability": "view",
      "type": "function"
    },
    {
      "inputs": [],
      "name": "hit",
      "outputs": [],
      "stateMutability": "nonpayable",
      "type": "function"
    },
    {
      "inputs": [],
      "name": "placeBet",
      "outputs": [],
      "stateMutability": "payable",
      "type": "function"
    },
    {
      "inputs": [
        {
          "internalType": "address",
          "name": "",
          "type": "address"
        }
      ],
      "name": "playerBalance",
      "outputs": [
        {
          "internalType": "uint256",
          "name": "",
          "type": "uint256"
        }
      ],
      "stateMutability": "view",
      "type": "function"
    },
    {
      "inputs": [],
      "name": "resetGame",
      "outputs": [],
      "stateMutability": "nonpayable",
      "type": "function"
    },
    {
      "inputs": [],
      "name": "stand",
      "outputs": [],
      "stateMutability": "nonpayable",
      "type": "function"
    }
  ],
  "bytecode": "0x6080604052348015600f57600080fd5b506122c78061001f6000396000f3fe6080604052600436106100e85760003560e01c80638daaaa2f1161008a578063d6ffa29a11610059578063d6ffa29a1461029a578063d9169b77146102b1578063e2734c93146102f4578063f90f456014610331576100e8565b80638daaaa2f146102165780639be4757014610241578063bb4722191461026c578063c2897b1014610283576100e8565b80636f9fb98a116100c65780636f9fb98a1461016c578063793cd71e146101975780637bf77345146101ae5780637e95b523146101eb576100e8565b80632ae3594a146100ed5780634e33f83b146101045780636540742f14610141575b600080fd5b3480156100f957600080fd5b5061010261033b565b005b34801561011057600080fd5b5061012b600480360381019061012691906118cf565b6105c1565b6040516101389190611915565b60405180910390f35b34801561014d57600080fd5b506101566105d9565b6040516101639190611915565b60405180910390f35b34801561017857600080fd5b506101816105e5565b60405161018e9190611915565b60405180910390f35b3480156101a357600080fd5b506101ac6105ed565b005b3480156101ba57600080fd5b506101d560048036038101906101d091906118cf565b610751565b6040516101e29190611ad5565b60405180910390f35b3480156101f757600080fd5b506102006108c2565b60405161020d9190611915565b60405180910390f35b34801561022257600080fd5b5061022b6108ce565b6040516102389190611915565b60405180910390f35b34801561024d57600080fd5b506102566108d3565b6040516102639190611915565b60405180910390f35b34801561027857600080fd5b506102816108d8565b005b34801561028f57600080fd5b506102986109d0565b005b3480156102a657600080fd5b506102af610c7e565b005b3480156102bd57600080fd5b506102d860048036038101906102d391906118cf565b611019565b6040516102eb9796959493929190611b06565b60405180910390f35b34801561030057600080fd5b5061031b600480360381019061031691906118cf565b611075565b6040516103289190611915565b60405180910390f35b6103396110be565b005b6000803373ffffffffffffffffffffffffffffffffffffffff1673ffffffffffffffffffffffffffffffffffffffff16815260200190815260200160002060050160009054906101000a900460ff166103c9576040517f08c379a00000000000000000000000000000000000000000000000000000000081526004016103c090611bd2565b60405180910390fd5b60008060003373ffffffffffffffffffffffffffffffffffffffff1673ffffffffffffffffffffffffffffffffffffffff1681526020019081526020016000209050600281600101805490501015610456576040517f08c379a000000000000000000000000000000000000000000000000000000000815260040161044d90611c3e565b60405180910390fd5b601581600301541061049d576040517f08c379a000000000000000000000000000000000000000000000000000000000815260040161049490611caa565b60405180910390fd5b60006104bb338360010180549050426104b69190611cf9565b61144c565b9050816001018190806001815401808255809150506001900390600052602060002001600090919091909150556105438260010180548060200260200160405190810160405280929190818152602001828054801561053957602002820191906000526020600020905b815481526020019060010190808311610525575b50505050506114a1565b82600301819055503373ffffffffffffffffffffffffffffffffffffffff167f5862322b90b0262b4c6ac6aa8dbbecf886608941aa0d4e1a79fb53df55d2f5aa828460030154856004015460405161059d93929190611d2d565b60405180910390a26015826003015411156105bd576105bc6000611593565b5b5050565b60016020528060005260406000206000915090505481565b67016345785d8a000081565b600047905090565b6000600160003373ffffffffffffffffffffffffffffffffffffffff1673ffffffffffffffffffffffffffffffffffffffff16815260200190815260200160002054905060008111610674576040517f08c379a000000000000000000000000000000000000000000000000000000000815260040161066b90611db0565b60405180910390fd5b6000600160003373ffffffffffffffffffffffffffffffffffffffff1673ffffffffffffffffffffffffffffffffffffffff168152602001908152602001600020819055503373ffffffffffffffffffffffffffffffffffffffff166108fc829081150290604051600060405180830381858888f193505050501580156106ff573d6000803e3d6000fd5b503373ffffffffffffffffffffffffffffffffffffffff167fab933177d8753a66dd869151cf9aa88649e067b7a4e2dad9d5d192d61cf593b0826040516107469190611915565b60405180910390a250565b610759611791565b6000808373ffffffffffffffffffffffffffffffffffffffff1673ffffffffffffffffffffffffffffffffffffffff1681526020019081526020016000206040518061012001604052908160008201548152602001600182018054806020026020016040519081016040528092919081815260200182805480156107fc57602002820191906000526020600020905b8154815260200190600101908083116107e8575b505050505081526020016002820180548060200260200160405190810160405280929190818152602001828054801561085457602002820191906000526020600020905b815481526020019060010190808311610840575b5050505050815260200160038201548152602001600482015481526020016005820160009054906101000a900460ff161515151581526020016005820160019054906101000a900460ff16151515158152602001600682015481526020016007820154815250509050919050565b678ac7230489e8000081565b600281565b600381565b6000803373ffffffffffffffffffffffffffffffffffffffff1673ffffffffffffffffffffffffffffffffffffffff16815260200190815260200160002060008082016000905560018201600061092f91906117e1565b60028201600061093f91906117e1565b600382016000905560048201600090556005820160006101000a81549060ff02191690556005820160016101000a81549060ff02191690556006820160009055600782016000905550506000600160003373ffffffffffffffffffffffffffffffffffffffff1673ffffffffffffffffffffffffffffffffffffffff16815260200190815260200160002081905550565b6000803373ffffffffffffffffffffffffffffffffffffffff1673ffffffffffffffffffffffffffffffffffffffff16815260200190815260200160002060050160009054906101000a900460ff16610a5e576040517f08c379a0000000000000000000000000000000000000000000000000000000008152600401610a5590611bd2565b60405180910390fd5b60008060003373ffffffffffffffffffffffffffffffffffffffff1673ffffffffffffffffffffffffffffffffffffffff1681526020019081526020016000209050600281600101805490501015610aeb576040517f08c379a0000000000000000000000000000000000000000000000000000000008152600401610ae290611c3e565b60405180910390fd5b601581600301541115610b33576040517f08c379a0000000000000000000000000000000000000000000000000000000008152600401610b2a90611e1c565b60405180910390fd5b5b601181600401541015610c5b576000610b6b338360020180549050606442610b5c9190611cf9565b610b669190611cf9565b61144c565b905081600201819080600181540180825580915050600190039060005260206000200160009091909190915055610bf382600201805480602002602001604051908101604052809291908181526020018280548015610be957602002820191906000526020600020905b815481526020019060010190808311610bd5575b50505050506114a1565b82600401819055503373ffffffffffffffffffffffffffffffffffffffff167f5862322b90b0262b4c6ac6aa8dbbecf886608941aa0d4e1a79fb53df55d2f5aa8284600301548560040154604051610c4d93929190611d2d565b60405180910390a250610b34565b6000610c6f8260030154836004015461175f565b9050610c7a81611593565b5050565b6000803373ffffffffffffffffffffffffffffffffffffffff1673ffffffffffffffffffffffffffffffffffffffff16815260200190815260200160002060050160009054906101000a900460ff16610d0c576040517f08c379a0000000000000000000000000000000000000000000000000000000008152600401610d0390611bd2565b60405180910390fd5b60008060003373ffffffffffffffffffffffffffffffffffffffff1673ffffffffffffffffffffffffffffffffffffffff16815260200190815260200160002090506000816001018054905014610d98576040517f08c379a0000000000000000000000000000000000000000000000000000000008152600401610d8f90611e88565b60405180910390fd5b6000610da4334261144c565b90506000610dbe33600142610db99190611cf9565b61144c565b90508260010182908060018154018082558091505060019003906000526020600020016000909190919091505582600101819080600181540180825580915050600190039060005260206000200160009091909190915055610e7183600101805480602002602001604051908101604052809291908181526020018280548015610e6757602002820191906000526020600020905b815481526020019060010190808311610e53575b50505050506114a1565b83600301819055506000610e9133600242610e8c9190611cf9565b61144c565b90506000610eab33600342610ea69190611cf9565b61144c565b90508460020182908060018154018082558091505060019003906000526020600020016000909190919091505584600201819080600181540180825580915050600190039060005260206000200160009091909190915055610f5e85600201805480602002602001604051908101604052809291908181526020018280548015610f5457602002820191906000526020600020905b815481526020019060010190808311610f40575b50505050506114a1565b85600401819055503373ffffffffffffffffffffffffffffffffffffffff167f5862322b90b0262b4c6ac6aa8dbbecf886608941aa0d4e1a79fb53df55d2f5aa85876003015485604051610fb493929190611d2d565b60405180910390a23373ffffffffffffffffffffffffffffffffffffffff167f5862322b90b0262b4c6ac6aa8dbbecf886608941aa0d4e1a79fb53df55d2f5aa8487600301548560405161100a93929190611d2d565b60405180910390a25050505050565b60006020528060005260406000206000915090508060000154908060030154908060040154908060050160009054906101000a900460ff16908060050160019054906101000a900460ff16908060060154908060070154905087565b6000600160008373ffffffffffffffffffffffffffffffffffffffff1673ffffffffffffffffffffffffffffffffffffffff168152602001908152602001600020549050919050565b3467016345785d8a000081101561110a576040517f08c379a000000000000000000000000000000000000000000000000000000000815260040161110190611ef4565b60405180910390fd5b678ac7230489e80000811115611155576040517f08c379a000000000000000000000000000000000000000000000000000000000815260040161114c90611f60565b60405180910390fd5b6000803373ffffffffffffffffffffffffffffffffffffffff1673ffffffffffffffffffffffffffffffffffffffff16815260200190815260200160002060050160009054906101000a900460ff16156111e4576040517f08c379a00000000000000000000000000000000000000000000000000000000081526004016111db90611fcc565b60405180910390fd5b604051806101200160405280348152602001600067ffffffffffffffff81111561121157611210611fec565b5b60405190808252806020026020018201604052801561123f5781602001602082028036833780820191505090505b508152602001600067ffffffffffffffff8111156112605761125f611fec565b5b60405190808252806020026020018201604052801561128e5781602001602082028036833780820191505090505b508152602001600081526020016000815260200160011515815260200160001515815260200160008152602001428152506000803373ffffffffffffffffffffffffffffffffffffffff1673ffffffffffffffffffffffffffffffffffffffff168152602001908152602001600020600082015181600001556020820151816001019080519060200190611323929190611802565b506040820151816002019080519060200190611340929190611802565b50606082015181600301556080820151816004015560a08201518160050160006101000a81548160ff02191690831515021790555060c08201518160050160016101000a81548160ff02191690831515021790555060e0820151816006015561010082015181600701559050503373ffffffffffffffffffffffffffffffffffffffff167f43e08d78302cdf9c94e1ffd293c2a3696139ee41cf3199b6f5eed9c7f6cc6090346040516113f39190611915565b60405180910390a23373ffffffffffffffffffffffffffffffffffffffff167fea32a03505fd9f04d664676d72295a86c5fb0465e69654751907ca305bc1d1c7346040516114419190611915565b60405180910390a250565b60008083834260405160200161146493929190612084565b6040516020818303038152906040528051906020012060001c90506001600d8261148e91906120f0565b6114989190611cf9565b91505092915050565b600080600090506000805b84518110156115505760006001600d8784815181106114ce576114cd612121565b5b60200260200101516114e091906120f0565b6114ea9190611cf9565b9050600181036115165782806114ff90612150565b935050600b8461150f9190611cf9565b9350611542565b600a811061153257600a8461152b9190611cf9565b9350611541565b808461153e9190611cf9565b93505b5b5080806001019150506114ac565b505b6015821180156115625750600081115b1561158957600a826115749190612198565b91508080611581906121cc565b915050611552565b8192505050919050565b60008060003373ffffffffffffffffffffffffffffffffffffffff1673ffffffffffffffffffffffffffffffffffffffff168152602001908152602001600020905060008160050160006101000a81548160ff021916908315150217905550818160050160016101000a81548160ff021916908315150217905550600082156117015760158260030154148015611631575060028260010180549050145b15611672576064600260646116469190612198565b6003846000015461165791906121f5565b61166191906121f5565b61166b9190612237565b90506116aa565b6064600260646116829190612198565b6002846000015461169391906121f5565b61169d91906121f5565b6116a79190612237565b90505b80600160003373ffffffffffffffffffffffffffffffffffffffff1673ffffffffffffffffffffffffffffffffffffffff16815260200190815260200160002060008282546116f99190611cf9565b925050819055505b8082600601819055503373ffffffffffffffffffffffffffffffffffffffff167f9484b73337c50c203cfa2332d7c26aba585df546b51be72822aa30eaae6eb60a8483604051611752929190612268565b60405180910390a2505050565b60006015831115611773576000905061178b565b6015821115611785576001905061178b565b81831190505b92915050565b604051806101200160405280600081526020016060815260200160608152602001600081526020016000815260200160001515815260200160001515815260200160008152602001600081525090565b50805460008255906000526020600020908101906117ff919061184f565b50565b82805482825590600052602060002090810192821561183e579160200282015b8281111561183d578251825591602001919060010190611822565b5b50905061184b919061184f565b5090565b5b80821115611868576000816000905550600101611850565b5090565b600080fd5b600073ffffffffffffffffffffffffffffffffffffffff82169050919050565b600061189c82611871565b9050919050565b6118ac81611891565b81146118b757600080fd5b50565b6000813590506118c9816118a3565b92915050565b6000602082840312156118e5576118e461186c565b5b60006118f3848285016118ba565b91505092915050565b6000819050919050565b61190f816118fc565b82525050565b600060208201905061192a6000830184611906565b92915050565b611939816118fc565b82525050565b600081519050919050565b600082825260208201905092915050565b6000819050602082019050919050565b60006119778383611930565b60208301905092915050565b6000602082019050919050565b600061199b8261193f565b6119a5818561194a565b93506119b08361195b565b8060005b838110156119e15781516119c8888261196b565b97506119d383611983565b9250506001810190506119b4565b5085935050505092915050565b60008115159050919050565b611a03816119ee565b82525050565b600061012083016000830151611a226000860182611930565b5060208301518482036020860152611a3a8282611990565b91505060408301518482036040860152611a548282611990565b9150506060830151611a696060860182611930565b506080830151611a7c6080860182611930565b5060a0830151611a8f60a08601826119fa565b5060c0830151611aa260c08601826119fa565b5060e0830151611ab560e0860182611930565b50610100830151611aca610100860182611930565b508091505092915050565b60006020820190508181036000830152611aef8184611a09565b905092915050565b611b00816119ee565b82525050565b600060e082019050611b1b600083018a611906565b611b286020830189611906565b611b356040830188611906565b611b426060830187611af7565b611b4f6080830186611af7565b611b5c60a0830185611906565b611b6960c0830184611906565b98975050505050505050565b600082825260208201905092915050565b7f4e6f206163746976652067616d65000000000000000000000000000000000000600082015250565b6000611bbc600e83611b75565b9150611bc782611b86565b602082019050919050565b60006020820190508181036000830152611beb81611baf565b9050919050565b7f4d757374206465616c2063617264732066697273740000000000000000000000600082015250565b6000611c28601583611b75565b9150611c3382611bf2565b602082019050919050565b60006020820190508181036000830152611c5781611c1b565b9050919050565b7f43616e6e6f7420686974206f6e203231206f7220627573740000000000000000600082015250565b6000611c94601883611b75565b9150611c9f82611c5e565b602082019050919050565b60006020820190508181036000830152611cc381611c87565b9050919050565b7f4e487b7100000000000000000000000000000000000000000000000000000000600052601160045260246000fd5b6000611d04826118fc565b9150611d0f836118fc565b9250828201905080821115611d2757611d26611cca565b5b92915050565b6000606082019050611d426000830186611906565b611d4f6020830185611906565b611d5c6040830184611906565b949350505050565b7f4e6f2077696e6e696e677320746f2063617368206f7574000000000000000000600082015250565b6000611d9a601783611b75565b9150611da582611d64565b602082019050919050565b60006020820190508181036000830152611dc981611d8d565b9050919050565b7f506c617965722062757374656400000000000000000000000000000000000000600082015250565b6000611e06600d83611b75565b9150611e1182611dd0565b602082019050919050565b60006020820190508181036000830152611e3581611df9565b9050919050565b7f436172647320616c7265616479206465616c7400000000000000000000000000600082015250565b6000611e72601383611b75565b9150611e7d82611e3c565b602082019050919050565b60006020820190508181036000830152611ea181611e65565b9050919050565b7f42657420746f6f20736d616c6c00000000000000000000000000000000000000600082015250565b6000611ede600d83611b75565b9150611ee982611ea8565b602082019050919050565b60006020820190508181036000830152611f0d81611ed1565b9050919050565b7f42657420746f6f206c6172676500000000000000000000000000000000000000600082015250565b6000611f4a600d83611b75565b9150611f5582611f14565b602082019050919050565b60006020820190508181036000830152611f7981611f3d565b9050919050565b7f47616d6520616c726561647920696e2070726f67726573730000000000000000600082015250565b6000611fb6601883611b75565b9150611fc182611f80565b602082019050919050565b60006020820190508181036000830152611fe581611fa9565b9050919050565b7f4e487b7100000000000000000000000000000000000000000000000000000000600052604160045260246000fd5b60008160601b9050919050565b60006120338261201b565b9050919050565b600061204582612028565b9050919050565b61205d61205882611891565b61203a565b82525050565b6000819050919050565b61207e612079826118fc565b612063565b82525050565b6000612090828661204c565b6014820191506120a0828561206d565b6020820191506120b0828461206d565b602082019150819050949350505050565b7f4e487b7100000000000000000000000000000000000000000000000000000000600052601260045260246000fd5b60006120fb826118fc565b9150612106836118fc565b925082612116576121156120c1565b5b828206905092915050565b7f4e487b7100000000000000000000000000000000000000000000000000000000600052603260045260246000fd5b600061215b826118fc565b91507fffffffffffffffffffffffffffffffffffffffffffffffffffffffffffffffff820361218d5761218c611cca565b5b600182019050919050565b60006121a3826118fc565b91506121ae836118fc565b92508282039050818111156121c6576121c5611cca565b5b92915050565b60006121d7826118fc565b9150600082036121ea576121e9611cca565b5b600182039050919050565b6000612200826118fc565b915061220b836118fc565b9250828202612219816118fc565b915082820484148315176122305761222f611cca565b5b5092915050565b6000612242826118fc565b915061224d836118fc565b92508261225d5761225c6120c1565b5b828204905092915050565b600060408201905061227d6000830185611af7565b61228a6020830184611906565b939250505056fea264697066735822122060e489386344fa3b23d943017c12d0c571d7624e3b033505f335cff05d84cd7264736f6c634300081c0033",
  "linkReferences": {},
  "deployedLinkReferences": {}
}