{
  "_format": "hh-sol-artifact-1",
  "contractName": "DiceRoll",
  "sourceName": "contracts/DiceRoll.sol",
  "abi": [
    {
      "anonymous": false,
      "inputs": [
        {
          "indexed": true,
          "internalType": "address",
          "name": "player",
          "type": "address"
        },
        {
          "indexed": false,
          "internalType": "uint256",
          "name": "amount",
          "type": "uint256"
        }
      ],
      "name": "BetPlaced",
      "type": "event"
    },
    {
      "anonymous": false,
      "inputs": [
        {
          "indexed": true,
          "internalType": "address",
          "name": "player",
          "type": "address"
        },
        {
          "indexed": false,
          "internalType": "uint256",
          "name": "amount",
          "type": "uint256"
        }
      ],
      "name": "CashOut",
      "type": "event"
    },
    {
      "anonymous": false,
      "inputs": [
        {
          "indexed": true,
          "internalType": "address",
          "name": "player",
          "type": "address"
        },
        {
          "indexed": false,
          "internalType": "uint256",
          "name": "bet",
          "type": "uint256"
        },
        {
          "indexed": false,
          "internalType": "uint256",
          "name": "dice1",
          "type": "uint256"
        },
        {
          "indexed": false,
          "internalType": "uint256",
          "name": "dice2",
          "type": "uint256"
        },
        {
          "indexed": false,
          "internalType": "uint256",
          "name": "sum",
          "type": "uint256"
        },
        {
          "indexed": false,
          "internalType": "bool",
          "name": "isWin",
          "type": "bool"
        },
        {
          "indexed": false,
          "internalType": "uint256",
          "name": "winAmount",
          "type": "uint256"
        }
      ],
      "name": "DiceRolled",
      "type": "event"
    },
    {
      "inputs": [],
      "name": "HOUSE_EDGE",
      "outputs": [
        {
          "internalType": "uint256",
          "name": "",
          "type": "uint256"
        }
      ],
      "stateMutability": "view",
      "type": "function"
    },
    {
      "inputs": [],
      "name": "MAX_BET",
      "outputs": [
        {
          "internalType": "uint256",
          "name": "",
          "type": "uint256"
        }
      ],
      "stateMutability": "view",
      "type": "function"
    },
    {
      "inputs": [],
      "name": "MIN_BET",
      "outputs": [
        {
          "internalType": "uint256",
          "name": "",
          "type": "uint256"
        }
      ],
      "stateMutability": "view",
      "type": "function"
    },
    {
      "inputs": [
        {
          "internalType": "address",
          "name": "",
          "type": "address"
        }
      ],
      "name": "activeGames",
      "outputs": [
        {
          "internalType": "uint256",
          "name": "bet",
          "type": "uint256"
        },
        {
          "internalType": "uint256",
          "name": "dice1",
          "type": "uint256"
        },
        {
          "internalType": "uint256",
          "name": "dice2",
          "type": "uint256"
        },
        {
          "internalType": "uint256",
          "name": "sum",
          "type": "uint256"
        },
        {
          "internalType": "bool",
          "name": "isWin",
          "type": "bool"
        },
        {
          "internalType": "uint256",
          "name": "winAmount",
          "type": "uint256"
        },
        {
          "internalType": "bool",
          "name": "isActive",
          "type": "bool"
        },
        {
          "internalType": "uint256",
          "name": "timestamp",
          "type": "uint256"
        }
      ],
      "stateMutability": "view",
      "type": "function"
    },
    {
      "inputs": [],
      "name": "cashOut",
      "outputs": [],
      "stateMutability": "nonpayable",
      "type": "function"
    },
    {
      "inputs": [
        {
          "internalType": "address",
          "name": "player",
          "type": "address"
        }
      ],
      "name": "getActiveGame",
      "outputs": [
        {
          "components": [
            {
              "internalType": "uint256",
              "name": "bet",
              "type": "uint256"
            },
            {
              "internalType": "uint256",
              "name": "dice1",
              "type": "uint256"
            },
            {
              "internalType": "uint256",
              "name": "dice2",
              "type": "uint256"
            },
            {
              "internalType": "uint256",
              "name": "sum",
              "type": "uint256"
            },
            {
              "internalType": "bool",
              "name": "isWin",
              "type": "bool"
            },
            {
              "internalType": "uint256",
              "name": "winAmount",
              "type": "uint256"
            },
            {
              "internalType": "bool",
              "name": "isActive",
              "type": "bool"
            },
            {
              "internalType": "uint256",
              "name": "timestamp",
              "type": "uint256"
            }
          ],
          "internalType": "struct DiceRoll.Game",
          "name": "",
          "type": "tuple"
        }
      ],
      "stateMutability": "view",
      "type": "function"
    },
    {
      "inputs": [],
      "name": "getContractBalance",
      "outputs": [
        {
          "internalType": "uint256",
          "name": "",
          "type": "uint256"
        }
      ],
      "stateMutability": "view",
      "type": "function"
    },
    {
      "inputs": [
        {
          "internalType": "address",
          "name": "player",
          "type": "address"
        }
      ],
      "name": "getPlayerBalance",
      "outputs": [
        {
          "internalType": "uint256",
          "name": "",
          "type": "uint256"
        }
      ],
      "stateMutability": "view",
      "type": "function"
    },
    {
      "inputs": [],
      "name": "placeBet",
      "outputs": [],
      "stateMutability": "payable",
      "type": "function"
    },
    {
      "inputs": [
        {
          "internalType": "address",
          "name": "",
          "type": "address"
        }
      ],
      "name": "playerBalance",
      "outputs": [
        {
          "internalType": "uint256",
          "name": "",
          "type": "uint256"
        }
      ],
      "stateMutability": "view",
      "type": "function"
    },
    {
      "inputs": [],
      "name": "resetGame",
      "outputs": [],
      "stateMutability": "nonpayable",
      "type": "function"
    },
    {
      "inputs": [
        {
          "internalType": "uint256",
          "name": "prediction",
          "type": "uint256"
        }
      ],
      "name": "rollDice",
      "outputs": [],
      "stateMutability": "nonpayable",
      "type": "function"
    }
  ],
  "bytecode": "0x6080604052348015600f57600080fd5b506114408061001f6000396000f3fe6080604052600436106100a75760003560e01c80638daaaa2f116100645780638daaaa2f146101be578063acfff377146101e9578063bb47221914610212578063d9169b7714610229578063e2734c931461026d578063f90f4560146102aa576100a7565b80634e33f83b146100ac5780636540742f146100e95780636f9fb98a14610114578063793cd71e1461013f5780637bf77345146101565780637e95b52314610193575b600080fd5b3480156100b857600080fd5b506100d360048036038101906100ce9190610d3d565b6102b4565b6040516100e09190610d83565b60405180910390f35b3480156100f557600080fd5b506100fe6102cc565b60405161010b9190610d83565b60405180910390f35b34801561012057600080fd5b506101296102d7565b6040516101369190610d83565b60405180910390f35b34801561014b57600080fd5b506101546102df565b005b34801561016257600080fd5b5061017d60048036038101906101789190610d3d565b610443565b60405161018a9190610e6a565b60405180910390f35b34801561019f57600080fd5b506101a861050e565b6040516101b59190610d83565b60405180910390f35b3480156101ca57600080fd5b506101d361051a565b6040516101e09190610d83565b60405180910390f35b3480156101f557600080fd5b50610210600480360381019061020b9190610eb2565b61051f565b005b34801561021e57600080fd5b5061022761083a565b005b34801561023557600080fd5b50610250600480360381019061024b9190610d3d565b61091a565b604051610264989796959493929190610eee565b60405180910390f35b34801561027957600080fd5b50610294600480360381019061028f9190610d3d565b61097c565b6040516102a19190610d83565b60405180910390f35b6102b26109c5565b005b60016020528060005260406000206000915090505481565b662386f26fc1000081565b600047905090565b6000600160003373ffffffffffffffffffffffffffffffffffffffff1673ffffffffffffffffffffffffffffffffffffffff16815260200190815260200160002054905060008111610366576040517f08c379a000000000000000000000000000000000000000000000000000000000815260040161035d90610fc9565b60405180910390fd5b6000600160003373ffffffffffffffffffffffffffffffffffffffff1673ffffffffffffffffffffffffffffffffffffffff168152602001908152602001600020819055503373ffffffffffffffffffffffffffffffffffffffff166108fc829081150290604051600060405180830381858888f193505050501580156103f1573d6000803e3d6000fd5b503373ffffffffffffffffffffffffffffffffffffffff167fab933177d8753a66dd869151cf9aa88649e067b7a4e2dad9d5d192d61cf593b0826040516104389190610d83565b60405180910390a250565b61044b610c91565b6000808373ffffffffffffffffffffffffffffffffffffffff1673ffffffffffffffffffffffffffffffffffffffff16815260200190815260200160002060405180610100016040529081600082015481526020016001820154815260200160028201548152602001600382015481526020016004820160009054906101000a900460ff16151515158152602001600582015481526020016006820160009054906101000a900460ff161515151581526020016007820154815250509050919050565b678ac7230489e8000081565b600281565b6000803373ffffffffffffffffffffffffffffffffffffffff1673ffffffffffffffffffffffffffffffffffffffff16815260200190815260200160002060060160009054906101000a900460ff166105ad576040517f08c379a00000000000000000000000000000000000000000000000000000000081526004016105a490611035565b60405180910390fd5b60008060003373ffffffffffffffffffffffffffffffffffffffff1673ffffffffffffffffffffffffffffffffffffffff168152602001908152602001600020905060006105fb3342610c3c565b90506000610615336001426106109190611084565b610c3c565b9050600081836106259190611084565b9050828460010181905550818460020181905550808460030181905550600080600087036106965760078310915081156106915760646002606461066991906110b8565b6002886000015461067a91906110ec565b61068491906110ec565b61068e919061115d565b90505b610736565b600187036106e75760078311915081156106e2576064600260646106ba91906110b8565b600288600001546106cb91906110ec565b6106d591906110ec565b6106df919061115d565b90505b610735565b600287036107345760078314915081156107335760646002606461070b91906110b8565b6004886000015461071c91906110ec565b61072691906110ec565b610730919061115d565b90505b5b5b5b818660040160006101000a81548160ff02191690831515021790555080866005018190555060008660060160006101000a81548160ff02191690831515021790555081156107d55780600160003373ffffffffffffffffffffffffffffffffffffffff1673ffffffffffffffffffffffffffffffffffffffff16815260200190815260200160002060008282546107cd9190611084565b925050819055505b3373ffffffffffffffffffffffffffffffffffffffff167f220b9585da4d4ffdbf6c6b1cc4e7caedb474bc42c6bd6793fc0e5cd3dbed49db876000015487878787876040516108299695949392919061118e565b60405180910390a250505050505050565b6000803373ffffffffffffffffffffffffffffffffffffffff1673ffffffffffffffffffffffffffffffffffffffff1681526020019081526020016000206000808201600090556001820160009055600282016000905560038201600090556004820160006101000a81549060ff021916905560058201600090556006820160006101000a81549060ff0219169055600782016000905550506000600160003373ffffffffffffffffffffffffffffffffffffffff1673ffffffffffffffffffffffffffffffffffffffff16815260200190815260200160002081905550565b60006020528060005260406000206000915090508060000154908060010154908060020154908060030154908060040160009054906101000a900460ff16908060050154908060060160009054906101000a900460ff16908060070154905088565b6000600160008373ffffffffffffffffffffffffffffffffffffffff1673ffffffffffffffffffffffffffffffffffffffff168152602001908152602001600020549050919050565b34662386f26fc10000811015610a10576040517f08c379a0000000000000000000000000000000000000000000000000000000008152600401610a079061123b565b60405180910390fd5b678ac7230489e80000811115610a5b576040517f08c379a0000000000000000000000000000000000000000000000000000000008152600401610a52906112a7565b60405180910390fd5b6000803373ffffffffffffffffffffffffffffffffffffffff1673ffffffffffffffffffffffffffffffffffffffff16815260200190815260200160002060060160009054906101000a900460ff1615610aea576040517f08c379a0000000000000000000000000000000000000000000000000000000008152600401610ae190611313565b60405180910390fd5b60405180610100016040528034815260200160008152602001600081526020016000815260200160001515815260200160008152602001600115158152602001428152506000803373ffffffffffffffffffffffffffffffffffffffff1673ffffffffffffffffffffffffffffffffffffffff1681526020019081526020016000206000820151816000015560208201518160010155604082015181600201556060820151816003015560808201518160040160006101000a81548160ff02191690831515021790555060a0820151816005015560c08201518160060160006101000a81548160ff02191690831515021790555060e082015181600701559050503373ffffffffffffffffffffffffffffffffffffffff167f43e08d78302cdf9c94e1ffd293c2a3696139ee41cf3199b6f5eed9c7f6cc609034604051610c319190610d83565b60405180910390a250565b600080838342604051602001610c549392919061139c565b6040516020818303038152906040528051906020012060001c90506001600682610c7e91906113d9565b610c889190611084565b91505092915050565b6040518061010001604052806000815260200160008152602001600081526020016000815260200160001515815260200160008152602001600015158152602001600081525090565b600080fd5b600073ffffffffffffffffffffffffffffffffffffffff82169050919050565b6000610d0a82610cdf565b9050919050565b610d1a81610cff565b8114610d2557600080fd5b50565b600081359050610d3781610d11565b92915050565b600060208284031215610d5357610d52610cda565b5b6000610d6184828501610d28565b91505092915050565b6000819050919050565b610d7d81610d6a565b82525050565b6000602082019050610d986000830184610d74565b92915050565b610da781610d6a565b82525050565b60008115159050919050565b610dc281610dad565b82525050565b61010082016000820151610ddf6000850182610d9e565b506020820151610df26020850182610d9e565b506040820151610e056040850182610d9e565b506060820151610e186060850182610d9e565b506080820151610e2b6080850182610db9565b5060a0820151610e3e60a0850182610d9e565b5060c0820151610e5160c0850182610db9565b5060e0820151610e6460e0850182610d9e565b50505050565b600061010082019050610e806000830184610dc8565b92915050565b610e8f81610d6a565b8114610e9a57600080fd5b50565b600081359050610eac81610e86565b92915050565b600060208284031215610ec857610ec7610cda565b5b6000610ed684828501610e9d565b91505092915050565b610ee881610dad565b82525050565b600061010082019050610f04600083018b610d74565b610f11602083018a610d74565b610f1e6040830189610d74565b610f2b6060830188610d74565b610f386080830187610edf565b610f4560a0830186610d74565b610f5260c0830185610edf565b610f5f60e0830184610d74565b9998505050505050505050565b600082825260208201905092915050565b7f4e6f2077696e6e696e677320746f2063617368206f7574000000000000000000600082015250565b6000610fb3601783610f6c565b9150610fbe82610f7d565b602082019050919050565b60006020820190508181036000830152610fe281610fa6565b9050919050565b7f4e6f206163746976652067616d65000000000000000000000000000000000000600082015250565b600061101f600e83610f6c565b915061102a82610fe9565b602082019050919050565b6000602082019050818103600083015261104e81611012565b9050919050565b7f4e487b7100000000000000000000000000000000000000000000000000000000600052601160045260246000fd5b600061108f82610d6a565b915061109a83610d6a565b92508282019050808211156110b2576110b1611055565b5b92915050565b60006110c382610d6a565b91506110ce83610d6a565b92508282039050818111156110e6576110e5611055565b5b92915050565b60006110f782610d6a565b915061110283610d6a565b925082820261111081610d6a565b9150828204841483151761112757611126611055565b5b5092915050565b7f4e487b7100000000000000000000000000000000000000000000000000000000600052601260045260246000fd5b600061116882610d6a565b915061117383610d6a565b9250826111835761118261112e565b5b828204905092915050565b600060c0820190506111a36000830189610d74565b6111b06020830188610d74565b6111bd6040830187610d74565b6111ca6060830186610d74565b6111d76080830185610edf565b6111e460a0830184610d74565b979650505050505050565b7f42657420746f6f20736d616c6c00000000000000000000000000000000000000600082015250565b6000611225600d83610f6c565b9150611230826111ef565b602082019050919050565b6000602082019050818103600083015261125481611218565b9050919050565b7f42657420746f6f206c6172676500000000000000000000000000000000000000600082015250565b6000611291600d83610f6c565b915061129c8261125b565b602082019050919050565b600060208201905081810360008301526112c081611284565b9050919050565b7f47616d6520616c726561647920696e2070726f67726573730000000000000000600082015250565b60006112fd601883610f6c565b9150611308826112c7565b602082019050919050565b6000602082019050818103600083015261132c816112f0565b9050919050565b60008160601b9050919050565b600061134b82611333565b9050919050565b600061135d82611340565b9050919050565b61137561137082610cff565b611352565b82525050565b6000819050919050565b61139661139182610d6a565b61137b565b82525050565b60006113a88286611364565b6014820191506113b88285611385565b6020820191506113c88284611385565b602082019150819050949350505050565b60006113e482610d6a565b91506113ef83610d6a565b9250826113ff576113fe61112e565b5b82820690509291505056fea26469706673582212209ed913bb87b0b75810cbed8b6e4d52057247a375edfc44ebc71cdc787d3dc4fb64736f6c634300081c0033",
  "linkReferences": {},
  "deployedLinkReferences": {}
}