{
  "_format": "hh-sol-artifact-1",
  "contractName": "HighLow",
  "sourceName": "contracts/HighLow.sol",
  "abi": [
    {
      "anonymous": false,
      "inputs": [
        {
          "indexed": true,
          "internalType": "address",
          "name": "player",
          "type": "address"
        },
        {
          "indexed": false,
          "internalType": "uint256",
          "name": "amount",
          "type": "uint256"
        }
      ],
      "name": "CashOut",
      "type": "event"
    },
    {
      "anonymous": false,
      "inputs": [
        {
          "indexed": true,
          "internalType": "address",
          "name": "player",
          "type": "address"
        },
        {
          "indexed": false,
          "internalType": "bool",
          "name": "isWin",
          "type": "bool"
        },
        {
          "indexed": false,
          "internalType": "uint256",
          "name": "winAmount",
          "type": "uint256"
        }
      ],
      "name": "GameEnded",
      "type": "event"
    },
    {
      "anonymous": false,
      "inputs": [
        {
          "indexed": true,
          "internalType": "address",
          "name": "player",
          "type": "address"
        },
        {
          "indexed": false,
          "internalType": "uint256",
          "name": "bet",
          "type": "uint256"
        },
        {
          "indexed": false,
          "internalType": "uint256",
          "name": "firstCard",
          "type": "uint256"
        }
      ],
      "name": "GameStarted",
      "type": "event"
    },
    {
      "anonymous": false,
      "inputs": [
        {
          "indexed": true,
          "internalType": "address",
          "name": "player",
          "type": "address"
        },
        {
          "indexed": false,
          "internalType": "uint256",
          "name": "secondCard",
          "type": "uint256"
        },
        {
          "indexed": false,
          "internalType": "bool",
          "name": "isCorrect",
          "type": "bool"
        },
        {
          "indexed": false,
          "internalType": "uint256",
          "name": "streak",
          "type": "uint256"
        }
      ],
      "name": "GuessMade",
      "type": "event"
    },
    {
      "inputs": [],
      "name": "GAME_TIMEOUT",
      "outputs": [
        {
          "internalType": "uint256",
          "name": "",
          "type": "uint256"
        }
      ],
      "stateMutability": "view",
      "type": "function"
    },
    {
      "inputs": [],
      "name": "MAX_BET",
      "outputs": [
        {
          "internalType": "uint256",
          "name": "",
          "type": "uint256"
        }
      ],
      "stateMutability": "view",
      "type": "function"
    },
    {
      "inputs": [],
      "name": "MAX_CARD_VALUE",
      "outputs": [
        {
          "internalType": "uint256",
          "name": "",
          "type": "uint256"
        }
      ],
      "stateMutability": "view",
      "type": "function"
    },
    {
      "inputs": [],
      "name": "MIN_BET",
      "outputs": [
        {
          "internalType": "uint256",
          "name": "",
          "type": "uint256"
        }
      ],
      "stateMutability": "view",
      "type": "function"
    },
    {
      "inputs": [],
      "name": "MIN_CARD_VALUE",
      "outputs": [
        {
          "internalType": "uint256",
          "name": "",
          "type": "uint256"
        }
      ],
      "stateMutability": "view",
      "type": "function"
    },
    {
      "inputs": [
        {
          "internalType": "address",
          "name": "",
          "type": "address"
        }
      ],
      "name": "activeGames",
      "outputs": [
        {
          "internalType": "uint256",
          "name": "firstCard",
          "type": "uint256"
        },
        {
          "internalType": "uint256",
          "name": "secondCard",
          "type": "uint256"
        },
        {
          "internalType": "uint256",
          "name": "betAmount",
          "type": "uint256"
        },
        {
          "internalType": "uint256",
          "name": "startTime",
          "type": "uint256"
        },
        {
          "internalType": "bool",
          "name": "isActive",
          "type": "bool"
        },
        {
          "internalType": "bool",
          "name": "isCompleted",
          "type": "bool"
        },
        {
          "internalType": "uint256",
          "name": "streak",
          "type": "uint256"
        },
        {
          "internalType": "uint256",
          "name": "multiplier",
          "type": "uint256"
        },
        {
          "internalType": "address",
          "name": "player",
          "type": "address"
        }
      ],
      "stateMutability": "view",
      "type": "function"
    },
    {
      "inputs": [],
      "name": "cashOut",
      "outputs": [],
      "stateMutability": "nonpayable",
      "type": "function"
    },
    {
      "inputs": [],
      "name": "getContractBalance",
      "outputs": [
        {
          "internalType": "uint256",
          "name": "",
          "type": "uint256"
        }
      ],
      "stateMutability": "view",
      "type": "function"
    },
    {
      "inputs": [
        {
          "internalType": "address",
          "name": "player",
          "type": "address"
        }
      ],
      "name": "getGame",
      "outputs": [
        {
          "components": [
            {
              "internalType": "uint256",
              "name": "firstCard",
              "type": "uint256"
            },
            {
              "internalType": "uint256",
              "name": "secondCard",
              "type": "uint256"
            },
            {
              "internalType": "uint256",
              "name": "betAmount",
              "type": "uint256"
            },
            {
              "internalType": "uint256",
              "name": "startTime",
              "type": "uint256"
            },
            {
              "internalType": "bool",
              "name": "isActive",
              "type": "bool"
            },
            {
              "internalType": "bool",
              "name": "isCompleted",
              "type": "bool"
            },
            {
              "internalType": "uint256",
              "name": "streak",
              "type": "uint256"
            },
            {
              "internalType": "uint256",
              "name": "multiplier",
              "type": "uint256"
            },
            {
              "internalType": "address",
              "name": "player",
              "type": "address"
            }
          ],
          "internalType": "struct HighLow.Game",
          "name": "",
          "type": "tuple"
        }
      ],
      "stateMutability": "view",
      "type": "function"
    },
    {
      "inputs": [
        {
          "internalType": "address",
          "name": "player",
          "type": "address"
        }
      ],
      "name": "getPlayerBalance",
      "outputs": [
        {
          "internalType": "uint256",
          "name": "",
          "type": "uint256"
        }
      ],
      "stateMutability": "view",
      "type": "function"
    },
    {
      "inputs": [
        {
          "internalType": "address",
          "name": "player",
          "type": "address"
        }
      ],
      "name": "getPlayerStats",
      "outputs": [
        {
          "internalType": "uint256",
          "name": "streak",
          "type": "uint256"
        },
        {
          "internalType": "uint256",
          "name": "multiplier",
          "type": "uint256"
        }
      ],
      "stateMutability": "view",
      "type": "function"
    },
    {
      "inputs": [
        {
          "internalType": "address",
          "name": "player",
          "type": "address"
        }
      ],
      "name": "getTimeRemaining",
      "outputs": [
        {
          "internalType": "uint256",
          "name": "",
          "type": "uint256"
        }
      ],
      "stateMutability": "view",
      "type": "function"
    },
    {
      "inputs": [
        {
          "internalType": "bool",
          "name": "isHigher",
          "type": "bool"
        }
      ],
      "name": "makeGuess",
      "outputs": [],
      "stateMutability": "nonpayable",
      "type": "function"
    },
    {
      "inputs": [
        {
          "internalType": "address",
          "name": "",
          "type": "address"
        }
      ],
      "name": "playerBalance",
      "outputs": [
        {
          "internalType": "uint256",
          "name": "",
          "type": "uint256"
        }
      ],
      "stateMutability": "view",
      "type": "function"
    },
    {
      "inputs": [
        {
          "internalType": "address",
          "name": "",
          "type": "address"
        }
      ],
      "name": "playerMultipliers",
      "outputs": [
        {
          "internalType": "uint256",
          "name": "",
          "type": "uint256"
        }
      ],
      "stateMutability": "view",
      "type": "function"
    },
    {
      "inputs": [
        {
          "internalType": "address",
          "name": "",
          "type": "address"
        }
      ],
      "name": "playerStreaks",
      "outputs": [
        {
          "internalType": "uint256",
          "name": "",
          "type": "uint256"
        }
      ],
      "stateMutability": "view",
      "type": "function"
    },
    {
      "inputs": [],
      "name": "resetGame",
      "outputs": [],
      "stateMutability": "nonpayable",
      "type": "function"
    },
    {
      "inputs": [],
      "name": "startGame",
      "outputs": [],
      "stateMutability": "payable",
      "type": "function"
    },
    {
      "inputs": [],
      "name": "withdraw",
      "outputs": [],
      "stateMutability": "nonpayable",
      "type": "function"
    }
  ],
  "bytecode": "0x6080604052348015600f57600080fd5b5061209b8061001f6000396000f3fe6080604052600436106101145760003560e01c80637e95b523116100a0578063d9169b7711610064578063d9169b771461035d578063df95e10b146103a2578063e2734c93146103df578063e7d1fc621461041c578063fee1c5ee1461044757610114565b80637e95b523146102ab5780638d1a4b28146102d657806399ff88d914610313578063bb4722191461033c578063d65ab5f21461035357610114565b80634e33f83b116100e75780634e33f83b146101c35780634fd66eae146102005780636540742f1461023e5780636f9fb98a14610269578063793cd71e1461029457610114565b8063099420b6146101195780630b0ad26a14610144578063189d0eac146101815780633ccfd60b146101ac575b600080fd5b34801561012557600080fd5b5061012e610484565b60405161013b91906116dc565b60405180910390f35b34801561015057600080fd5b5061016b6004803603810190610166919061175a565b610489565b60405161017891906116dc565b60405180910390f35b34801561018d57600080fd5b5061019661052a565b6040516101a391906116dc565b60405180910390f35b3480156101b857600080fd5b506101c161052f565b005b3480156101cf57600080fd5b506101ea60048036038101906101e5919061175a565b610693565b6040516101f791906116dc565b60405180910390f35b34801561020c57600080fd5b506102276004803603810190610222919061175a565b6106ab565b604051610235929190611787565b60405180910390f35b34801561024a57600080fd5b50610253610737565b60405161026091906116dc565b60405180910390f35b34801561027557600080fd5b5061027e610742565b60405161028b91906116dc565b60405180910390f35b3480156102a057600080fd5b506102a961074a565b005b3480156102b757600080fd5b506102c0610ae8565b6040516102cd91906116dc565b60405180910390f35b3480156102e257600080fd5b506102fd60048036038101906102f8919061175a565b610af4565b60405161030a91906118a0565b60405180910390f35b34801561031f57600080fd5b5061033a600480360381019061033591906118e8565b610c15565b005b34801561034857600080fd5b506103516110c9565b005b61035b611200565b005b34801561036957600080fd5b50610384600480360381019061037f919061175a565b6114ea565b60405161039999989796959493929190611933565b60405180910390f35b3480156103ae57600080fd5b506103c960048036038101906103c4919061175a565b611572565b6040516103d691906116dc565b60405180910390f35b3480156103eb57600080fd5b506104066004803603810190610401919061175a565b61158a565b60405161041391906116dc565b60405180910390f35b34801561042857600080fd5b506104316115d3565b60405161043e91906116dc565b60405180910390f35b34801561045357600080fd5b5061046e6004803603810190610469919061175a565b6115d8565b60405161047b91906116dc565b60405180910390f35b600a81565b6000806000808473ffffffffffffffffffffffffffffffffffffffff1673ffffffffffffffffffffffffffffffffffffffff16815260200190815260200160002090508060040160009054906101000a900460ff166104ec576000915050610525565b60008160030154426104fe91906119ef565b9050600a811061051357600092505050610525565b80600a61052091906119ef565b925050505b919050565b600e81565b6000600360003373ffffffffffffffffffffffffffffffffffffffff1673ffffffffffffffffffffffffffffffffffffffff168152602001908152602001600020549050600081116105b6576040517f08c379a00000000000000000000000000000000000000000000000000000000081526004016105ad90611a80565b60405180910390fd5b6000600360003373ffffffffffffffffffffffffffffffffffffffff1673ffffffffffffffffffffffffffffffffffffffff168152602001908152602001600020819055503373ffffffffffffffffffffffffffffffffffffffff166108fc829081150290604051600060405180830381858888f19350505050158015610641573d6000803e3d6000fd5b503373ffffffffffffffffffffffffffffffffffffffff167fab933177d8753a66dd869151cf9aa88649e067b7a4e2dad9d5d192d61cf593b08260405161068891906116dc565b60405180910390a250565b60036020528060005260406000206000915090505481565b600080600160008473ffffffffffffffffffffffffffffffffffffffff1673ffffffffffffffffffffffffffffffffffffffff16815260200190815260200160002054600260008573ffffffffffffffffffffffffffffffffffffffff1673ffffffffffffffffffffffffffffffffffffffff1681526020019081526020016000205491509150915091565b66038d7ea4c6800081565b600047905090565b6000803373ffffffffffffffffffffffffffffffffffffffff1673ffffffffffffffffffffffffffffffffffffffff16815260200190815260200160002060040160009054906101000a900460ff166107d8576040517f08c379a00000000000000000000000000000000000000000000000000000000081526004016107cf90611aec565b60405180910390fd5b6000803373ffffffffffffffffffffffffffffffffffffffff1673ffffffffffffffffffffffffffffffffffffffff16815260200190815260200160002060040160019054906101000a900460ff1615610867576040517f08c379a000000000000000000000000000000000000000000000000000000000815260040161085e90611b58565b60405180910390fd5b60008060003373ffffffffffffffffffffffffffffffffffffffff1673ffffffffffffffffffffffffffffffffffffffff168152602001908152602001600020905060008160050154116108f0576040517f08c379a00000000000000000000000000000000000000000000000000000000081526004016108e790611bc4565b60405180910390fd5b60006103e8826006015483600201546109099190611be4565b6109139190611c55565b905060018260040160016101000a81548160ff02191690831515021790555060008260040160006101000a81548160ff021916908315150217905550600082600501819055506103e882600601819055506000600160003373ffffffffffffffffffffffffffffffffffffffff1673ffffffffffffffffffffffffffffffffffffffff168152602001908152602001600020819055506103e8600260003373ffffffffffffffffffffffffffffffffffffffff1673ffffffffffffffffffffffffffffffffffffffff1681526020019081526020016000208190555080600360003373ffffffffffffffffffffffffffffffffffffffff1673ffffffffffffffffffffffffffffffffffffffff1681526020019081526020016000206000828254610a3e9190611c86565b925050819055503373ffffffffffffffffffffffffffffffffffffffff167fab933177d8753a66dd869151cf9aa88649e067b7a4e2dad9d5d192d61cf593b082604051610a8b91906116dc565b60405180910390a23373ffffffffffffffffffffffffffffffffffffffff167f9484b73337c50c203cfa2332d7c26aba585df546b51be72822aa30eaae6eb60a600183604051610adc929190611cba565b60405180910390a25050565b678ac7230489e8000081565b610afc61165d565b6000808373ffffffffffffffffffffffffffffffffffffffff1673ffffffffffffffffffffffffffffffffffffffff16815260200190815260200160002060405180610120016040529081600082015481526020016001820154815260200160028201548152602001600382015481526020016004820160009054906101000a900460ff161515151581526020016004820160019054906101000a900460ff1615151515815260200160058201548152602001600682015481526020016007820160009054906101000a900473ffffffffffffffffffffffffffffffffffffffff1673ffffffffffffffffffffffffffffffffffffffff1673ffffffffffffffffffffffffffffffffffffffff16815250509050919050565b6000803373ffffffffffffffffffffffffffffffffffffffff1673ffffffffffffffffffffffffffffffffffffffff16815260200190815260200160002060040160009054906101000a900460ff16610ca3576040517f08c379a0000000000000000000000000000000000000000000000000000000008152600401610c9a90611aec565b60405180910390fd5b6000803373ffffffffffffffffffffffffffffffffffffffff1673ffffffffffffffffffffffffffffffffffffffff16815260200190815260200160002060040160019054906101000a900460ff1615610d32576040517f08c379a0000000000000000000000000000000000000000000000000000000008152600401610d2990611b58565b60405180910390fd5b600a6000803373ffffffffffffffffffffffffffffffffffffffff1673ffffffffffffffffffffffffffffffffffffffff16815260200190815260200160002060030154610d809190611c86565b421115610dc2576040517f08c379a0000000000000000000000000000000000000000000000000000000008152600401610db990611d2f565b60405180910390fd5b60008060003373ffffffffffffffffffffffffffffffffffffffff1673ffffffffffffffffffffffffffffffffffffffff16815260200190815260200160002090506000610e1c33600142610e179190611c86565b6115f0565b90508082600101819055506000838015610e395750826000015482115b15610e475760019050610e63565b83158015610e585750826000015482105b15610e6257600190505b5b8015610f9557826005016000815480929190610e7e90611d4f565b919050555060648360050154610e949190611be4565b6103e8610ea19190611c86565b83600601819055508260050154600160003373ffffffffffffffffffffffffffffffffffffffff1673ffffffffffffffffffffffffffffffffffffffff168152602001908152602001600020819055508260060154600260003373ffffffffffffffffffffffffffffffffffffffff1673ffffffffffffffffffffffffffffffffffffffff168152602001908152602001600020819055503373ffffffffffffffffffffffffffffffffffffffff167fa106c36b69a35274ebb0c811136cfb28f080f1adbb67c1a77505bef9000a585e8360018660050154604051610f8893929190611d97565b60405180910390a26110c3565b600083600501819055506103e8836006018190555060018360040160016101000a81548160ff02191690831515021790555060008360040160006101000a81548160ff0219169083151502179055506000600160003373ffffffffffffffffffffffffffffffffffffffff1673ffffffffffffffffffffffffffffffffffffffff168152602001908152602001600020819055506103e8600260003373ffffffffffffffffffffffffffffffffffffffff1673ffffffffffffffffffffffffffffffffffffffff168152602001908152602001600020819055503373ffffffffffffffffffffffffffffffffffffffff167fa106c36b69a35274ebb0c811136cfb28f080f1adbb67c1a77505bef9000a585e836000806040516110ba93929190611e13565b60405180910390a25b50505050565b60008060003373ffffffffffffffffffffffffffffffffffffffff1673ffffffffffffffffffffffffffffffffffffffff16815260200190815260200160002090508060040160009054906101000a900460ff16156111fd5760018160040160016101000a81548160ff02191690831515021790555060008160040160006101000a81548160ff021916908315150217905550600081600501819055506103e881600601819055506000600160003373ffffffffffffffffffffffffffffffffffffffff1673ffffffffffffffffffffffffffffffffffffffff168152602001908152602001600020819055506103e8600260003373ffffffffffffffffffffffffffffffffffffffff1673ffffffffffffffffffffffffffffffffffffffff168152602001908152602001600020819055505b50565b66038d7ea4c6800034101561124a576040517f08c379a000000000000000000000000000000000000000000000000000000000815260040161124190611e96565b60405180910390fd5b678ac7230489e80000341115611295576040517f08c379a000000000000000000000000000000000000000000000000000000000815260040161128c90611f02565b60405180910390fd5b6000803373ffffffffffffffffffffffffffffffffffffffff1673ffffffffffffffffffffffffffffffffffffffff16815260200190815260200160002060040160009054906101000a900460ff1615611324576040517f08c379a000000000000000000000000000000000000000000000000000000000815260040161131b90611f6e565b60405180910390fd5b600061133033426115f0565b905060405180610120016040528082815260200160008152602001348152602001428152602001600115158152602001600015158152602001600081526020016103e881526020013373ffffffffffffffffffffffffffffffffffffffff168152506000803373ffffffffffffffffffffffffffffffffffffffff1673ffffffffffffffffffffffffffffffffffffffff1681526020019081526020016000206000820151816000015560208201518160010155604082015181600201556060820151816003015560808201518160040160006101000a81548160ff02191690831515021790555060a08201518160040160016101000a81548160ff02191690831515021790555060c0820151816005015560e082015181600601556101008201518160070160006101000a81548173ffffffffffffffffffffffffffffffffffffffff021916908373ffffffffffffffffffffffffffffffffffffffff1602179055509050503373ffffffffffffffffffffffffffffffffffffffff167f2ebc740a82c0c6454a29c8aa9db57c66257e2f17d38a783c83c83dd49f52e0fb34836040516114df929190611787565b60405180910390a250565b60006020528060005260406000206000915090508060000154908060010154908060020154908060030154908060040160009054906101000a900460ff16908060040160019054906101000a900460ff16908060050154908060060154908060070160009054906101000a900473ffffffffffffffffffffffffffffffffffffffff16905089565b60026020528060005260406000206000915090505481565b6000600360008373ffffffffffffffffffffffffffffffffffffffff1673ffffffffffffffffffffffffffffffffffffffff168152602001908152602001600020549050919050565b600281565b60016020528060005260406000206000915090505481565b60008083834260405160200161160893929190611ff7565b6040516020818303038152906040528051906020012060001c9050600260016002600e61163591906119ef565b61163f9190611c86565b8261164a9190612034565b6116549190611c86565b91505092915050565b604051806101200160405280600081526020016000815260200160008152602001600081526020016000151581526020016000151581526020016000815260200160008152602001600073ffffffffffffffffffffffffffffffffffffffff1681525090565b6000819050919050565b6116d6816116c3565b82525050565b60006020820190506116f160008301846116cd565b92915050565b600080fd5b600073ffffffffffffffffffffffffffffffffffffffff82169050919050565b6000611727826116fc565b9050919050565b6117378161171c565b811461174257600080fd5b50565b6000813590506117548161172e565b92915050565b6000602082840312156117705761176f6116f7565b5b600061177e84828501611745565b91505092915050565b600060408201905061179c60008301856116cd565b6117a960208301846116cd565b9392505050565b6117b9816116c3565b82525050565b60008115159050919050565b6117d4816117bf565b82525050565b6117e38161171c565b82525050565b6101208201600082015161180060008501826117b0565b50602082015161181360208501826117b0565b50604082015161182660408501826117b0565b50606082015161183960608501826117b0565b50608082015161184c60808501826117cb565b5060a082015161185f60a08501826117cb565b5060c082015161187260c08501826117b0565b5060e082015161188560e08501826117b0565b5061010082015161189a6101008501826117da565b50505050565b6000610120820190506118b660008301846117e9565b92915050565b6118c5816117bf565b81146118d057600080fd5b50565b6000813590506118e2816118bc565b92915050565b6000602082840312156118fe576118fd6116f7565b5b600061190c848285016118d3565b91505092915050565b61191e816117bf565b82525050565b61192d8161171c565b82525050565b600061012082019050611949600083018c6116cd565b611956602083018b6116cd565b611963604083018a6116cd565b61197060608301896116cd565b61197d6080830188611915565b61198a60a0830187611915565b61199760c08301866116cd565b6119a460e08301856116cd565b6119b2610100830184611924565b9a9950505050505050505050565b7f4e487b7100000000000000000000000000000000000000000000000000000000600052601160045260246000fd5b60006119fa826116c3565b9150611a05836116c3565b9250828203905081811115611a1d57611a1c6119c0565b5b92915050565b600082825260208201905092915050565b7f4e6f2077696e6e696e677320746f207769746864726177000000000000000000600082015250565b6000611a6a601783611a23565b9150611a7582611a34565b602082019050919050565b60006020820190508181036000830152611a9981611a5d565b9050919050565b7f4e6f206163746976652067616d65000000000000000000000000000000000000600082015250565b6000611ad6600e83611a23565b9150611ae182611aa0565b602082019050919050565b60006020820190508181036000830152611b0581611ac9565b9050919050565b7f47616d6520616c726561647920636f6d706c6574656400000000000000000000600082015250565b6000611b42601683611a23565b9150611b4d82611b0c565b602082019050919050565b60006020820190508181036000830152611b7181611b35565b9050919050565b7f4e6f2077696e6e696e677320746f2063617368206f7574000000000000000000600082015250565b6000611bae601783611a23565b9150611bb982611b78565b602082019050919050565b60006020820190508181036000830152611bdd81611ba1565b9050919050565b6000611bef826116c3565b9150611bfa836116c3565b9250828202611c08816116c3565b91508282048414831517611c1f57611c1e6119c0565b5b5092915050565b7f4e487b7100000000000000000000000000000000000000000000000000000000600052601260045260246000fd5b6000611c60826116c3565b9150611c6b836116c3565b925082611c7b57611c7a611c26565b5b828204905092915050565b6000611c91826116c3565b9150611c9c836116c3565b9250828201905080821115611cb457611cb36119c0565b5b92915050565b6000604082019050611ccf6000830185611915565b611cdc60208301846116cd565b9392505050565b7f47616d6520657870697265640000000000000000000000000000000000000000600082015250565b6000611d19600c83611a23565b9150611d2482611ce3565b602082019050919050565b60006020820190508181036000830152611d4881611d0c565b9050919050565b6000611d5a826116c3565b91507fffffffffffffffffffffffffffffffffffffffffffffffffffffffffffffffff8203611d8c57611d8b6119c0565b5b600182019050919050565b6000606082019050611dac60008301866116cd565b611db96020830185611915565b611dc660408301846116cd565b949350505050565b6000819050919050565b6000819050919050565b6000611dfd611df8611df384611dce565b611dd8565b6116c3565b9050919050565b611e0d81611de2565b82525050565b6000606082019050611e2860008301866116cd565b611e356020830185611915565b611e426040830184611e04565b949350505050565b7f42657420746f6f20736d616c6c00000000000000000000000000000000000000600082015250565b6000611e80600d83611a23565b9150611e8b82611e4a565b602082019050919050565b60006020820190508181036000830152611eaf81611e73565b9050919050565b7f42657420746f6f206c6172676500000000000000000000000000000000000000600082015250565b6000611eec600d83611a23565b9150611ef782611eb6565b602082019050919050565b60006020820190508181036000830152611f1b81611edf565b9050919050565b7f47616d6520616c726561647920696e2070726f67726573730000000000000000600082015250565b6000611f58601883611a23565b9150611f6382611f22565b602082019050919050565b60006020820190508181036000830152611f8781611f4b565b9050919050565b60008160601b9050919050565b6000611fa682611f8e565b9050919050565b6000611fb882611f9b565b9050919050565b611fd0611fcb8261171c565b611fad565b82525050565b6000819050919050565b611ff1611fec826116c3565b611fd6565b82525050565b60006120038286611fbf565b6014820191506120138285611fe0565b6020820191506120238284611fe0565b602082019150819050949350505050565b600061203f826116c3565b915061204a836116c3565b92508261205a57612059611c26565b5b82820690509291505056fea2646970667358221220807363f8e680570747f45d8eddd34aa154d84fd30271cb54207356b75b50dd2664736f6c634300081c0033",
  "linkReferences": {},
  "deployedLinkReferences": {}
}