{
  "_format": "hh-sol-artifact-1",
  "contractName": "Mines",
  "sourceName": "contracts/Mines.sol",
  "abi": [
    {
      "anonymous": false,
      "inputs": [
        {
          "indexed": true,
          "internalType": "address",
          "name": "player",
          "type": "address"
        },
        {
          "indexed": false,
          "internalType": "uint256",
          "name": "amount",
          "type": "uint256"
        }
      ],
      "name": "BetPlaced",
      "type": "event"
    },
    {
      "anonymous": false,
      "inputs": [
        {
          "indexed": true,
          "internalType": "address",
          "name": "player",
          "type": "address"
        },
        {
          "indexed": false,
          "internalType": "uint256",
          "name": "amount",
          "type": "uint256"
        }
      ],
      "name": "CashOut",
      "type": "event"
    },
    {
      "anonymous": false,
      "inputs": [
        {
          "indexed": true,
          "internalType": "address",
          "name": "player",
          "type": "address"
        },
        {
          "indexed": false,
          "internalType": "bool",
          "name": "isWin",
          "type": "bool"
        },
        {
          "indexed": false,
          "internalType": "uint256",
          "name": "winAmount",
          "type": "uint256"
        }
      ],
      "name": "GameEnded",
      "type": "event"
    },
    {
      "anonymous": false,
      "inputs": [
        {
          "indexed": true,
          "internalType": "address",
          "name": "player",
          "type": "address"
        },
        {
          "indexed": false,
          "internalType": "uint256",
          "name": "bet",
          "type": "uint256"
        },
        {
          "indexed": false,
          "internalType": "uint256[]",
          "name": "bombPositions",
          "type": "uint256[]"
        }
      ],
      "name": "GameStarted",
      "type": "event"
    },
    {
      "anonymous": false,
      "inputs": [
        {
          "indexed": true,
          "internalType": "address",
          "name": "player",
          "type": "address"
        },
        {
          "indexed": false,
          "internalType": "uint256",
          "name": "position",
          "type": "uint256"
        },
        {
          "indexed": false,
          "internalType": "bool",
          "name": "isBomb",
          "type": "bool"
        },
        {
          "indexed": false,
          "internalType": "uint256",
          "name": "multiplier",
          "type": "uint256"
        }
      ],
      "name": "TileRevealed",
      "type": "event"
    },
    {
      "inputs": [],
      "name": "BOMB_COUNT",
      "outputs": [
        {
          "internalType": "uint256",
          "name": "",
          "type": "uint256"
        }
      ],
      "stateMutability": "view",
      "type": "function"
    },
    {
      "inputs": [],
      "name": "HOUSE_EDGE",
      "outputs": [
        {
          "internalType": "uint256",
          "name": "",
          "type": "uint256"
        }
      ],
      "stateMutability": "view",
      "type": "function"
    },
    {
      "inputs": [],
      "name": "MAX_BET",
      "outputs": [
        {
          "internalType": "uint256",
          "name": "",
          "type": "uint256"
        }
      ],
      "stateMutability": "view",
      "type": "function"
    },
    {
      "inputs": [],
      "name": "MIN_BET",
      "outputs": [
        {
          "internalType": "uint256",
          "name": "",
          "type": "uint256"
        }
      ],
      "stateMutability": "view",
      "type": "function"
    },
    {
      "inputs": [],
      "name": "SAFE_TILES",
      "outputs": [
        {
          "internalType": "uint256",
          "name": "",
          "type": "uint256"
        }
      ],
      "stateMutability": "view",
      "type": "function"
    },
    {
      "inputs": [],
      "name": "TOTAL_TILES",
      "outputs": [
        {
          "internalType": "uint256",
          "name": "",
          "type": "uint256"
        }
      ],
      "stateMutability": "view",
      "type": "function"
    },
    {
      "inputs": [
        {
          "internalType": "address",
          "name": "",
          "type": "address"
        }
      ],
      "name": "activeGames",
      "outputs": [
        {
          "internalType": "uint256",
          "name": "bet",
          "type": "uint256"
        },
        {
          "internalType": "uint256",
          "name": "currentMultiplier",
          "type": "uint256"
        },
        {
          "internalType": "uint256",
          "name": "safeTilesFound",
          "type": "uint256"
        },
        {
          "internalType": "bool",
          "name": "isActive",
          "type": "bool"
        },
        {
          "internalType": "bool",
          "name": "isWin",
          "type": "bool"
        },
        {
          "internalType": "uint256",
          "name": "winAmount",
          "type": "uint256"
        },
        {
          "internalType": "uint256",
          "name": "timestamp",
          "type": "uint256"
        }
      ],
      "stateMutability": "view",
      "type": "function"
    },
    {
      "inputs": [],
      "name": "cashOut",
      "outputs": [],
      "stateMutability": "nonpayable",
      "type": "function"
    },
    {
      "inputs": [
        {
          "internalType": "address",
          "name": "player",
          "type": "address"
        }
      ],
      "name": "getActiveGame",
      "outputs": [
        {
          "components": [
            {
              "internalType": "uint256",
              "name": "bet",
              "type": "uint256"
            },
            {
              "internalType": "uint256[]",
              "name": "bombPositions",
              "type": "uint256[]"
            },
            {
              "internalType": "uint256[]",
              "name": "revealedTiles",
              "type": "uint256[]"
            },
            {
              "internalType": "uint256",
              "name": "currentMultiplier",
              "type": "uint256"
            },
            {
              "internalType": "uint256",
              "name": "safeTilesFound",
              "type": "uint256"
            },
            {
              "internalType": "bool",
              "name": "isActive",
              "type": "bool"
            },
            {
              "internalType": "bool",
              "name": "isWin",
              "type": "bool"
            },
            {
              "internalType": "uint256",
              "name": "winAmount",
              "type": "uint256"
            },
            {
              "internalType": "uint256",
              "name": "timestamp",
              "type": "uint256"
            }
          ],
          "internalType": "struct Mines.Game",
          "name": "",
          "type": "tuple"
        }
      ],
      "stateMutability": "view",
      "type": "function"
    },
    {
      "inputs": [],
      "name": "getContractBalance",
      "outputs": [
        {
          "internalType": "uint256",
          "name": "",
          "type": "uint256"
        }
      ],
      "stateMutability": "view",
      "type": "function"
    },
    {
      "inputs": [
        {
          "internalType": "address",
          "name": "player",
          "type": "address"
        }
      ],
      "name": "getPlayerBalance",
      "outputs": [
        {
          "internalType": "uint256",
          "name": "",
          "type": "uint256"
        }
      ],
      "stateMutability": "view",
      "type": "function"
    },
    {
      "inputs": [],
      "name": "placeBet",
      "outputs": [],
      "stateMutability": "payable",
      "type": "function"
    },
    {
      "inputs": [
        {
          "internalType": "address",
          "name": "",
          "type": "address"
        }
      ],
      "name": "playerBalance",
      "outputs": [
        {
          "internalType": "uint256",
          "name": "",
          "type": "uint256"
        }
      ],
      "stateMutability": "view",
      "type": "function"
    },
    {
      "inputs": [],
      "name": "resetGame",
      "outputs": [],
      "stateMutability": "nonpayable",
      "type": "function"
    },
    {
      "inputs": [
        {
          "internalType": "uint256",
          "name": "position",
          "type": "uint256"
        }
      ],
      "name": "revealTile",
      "outputs": [],
      "stateMutability": "nonpayable",
      "type": "function"
    },
    {
      "inputs": [],
      "name": "withdraw",
      "outputs": [],
      "stateMutability": "nonpayable",
      "type": "function"
    }
  ],
  "bytecode": "0x6080604052348015600f57600080fd5b506122b08061001f6000396000f3fe6080604052600436106100f35760003560e01c80638daaaa2f1161008a578063bb47221911610059578063bb472219146102f6578063d9169b771461030d578063e2734c9314610350578063f90f45601461038d576100f3565b80638daaaa2f1461024c57806394701f32146102775780639c2654a8146102a2578063b900d706146102cd576100f3565b806373c78cb3116100c657806373c78cb3146101a2578063793cd71e146101cd5780637bf77345146101e45780637e95b52314610221576100f3565b80633ccfd60b146100f85780634e33f83b1461010f5780636540742f1461014c5780636f9fb98a14610177575b600080fd5b34801561010457600080fd5b5061010d610397565b005b34801561011b57600080fd5b50610136600480360381019061013191906117d6565b6104fb565b604051610143919061181c565b60405180910390f35b34801561015857600080fd5b50610161610513565b60405161016e919061181c565b60405180910390f35b34801561018357600080fd5b5061018c61051e565b604051610199919061181c565b60405180910390f35b3480156101ae57600080fd5b506101b7610526565b6040516101c4919061181c565b60405180910390f35b3480156101d957600080fd5b506101e2610537565b005b3480156101f057600080fd5b5061020b600480360381019061020691906117d6565b61077a565b60405161021891906119dc565b60405180910390f35b34801561022d57600080fd5b506102366108eb565b604051610243919061181c565b60405180910390f35b34801561025857600080fd5b506102616108f7565b60405161026e919061181c565b60405180910390f35b34801561028357600080fd5b5061028c6108fc565b604051610299919061181c565b60405180910390f35b3480156102ae57600080fd5b506102b7610901565b6040516102c4919061181c565b60405180910390f35b3480156102d957600080fd5b506102f460048036038101906102ef9190611a2a565b610906565b005b34801561030257600080fd5b5061030b610c40565b005b34801561031957600080fd5b50610334600480360381019061032f91906117d6565b610d38565b6040516103479796959493929190611a66565b60405180910390f35b34801561035c57600080fd5b50610377600480360381019061037291906117d6565b610d94565b604051610384919061181c565b60405180910390f35b610395610ddd565b005b6000600160003373ffffffffffffffffffffffffffffffffffffffff1673ffffffffffffffffffffffffffffffffffffffff1681526020019081526020016000205490506000811161041e576040517f08c379a000000000000000000000000000000000000000000000000000000000815260040161041590611b32565b60405180910390fd5b6000600160003373ffffffffffffffffffffffffffffffffffffffff1673ffffffffffffffffffffffffffffffffffffffff168152602001908152602001600020819055503373ffffffffffffffffffffffffffffffffffffffff166108fc829081150290604051600060405180830381858888f193505050501580156104a9573d6000803e3d6000fd5b503373ffffffffffffffffffffffffffffffffffffffff167fab933177d8753a66dd869151cf9aa88649e067b7a4e2dad9d5d192d61cf593b0826040516104f0919061181c565b60405180910390a250565b60016020528060005260406000206000915090505481565b66038d7ea4c6800081565b600047905090565b600a60196105349190611b81565b81565b6000803373ffffffffffffffffffffffffffffffffffffffff1673ffffffffffffffffffffffffffffffffffffffff16815260200190815260200160002060050160009054906101000a900460ff166105c5576040517f08c379a00000000000000000000000000000000000000000000000000000000081526004016105bc90611c01565b60405180910390fd5b60008060003373ffffffffffffffffffffffffffffffffffffffff1673ffffffffffffffffffffffffffffffffffffffff1681526020019081526020016000209050600081600401541161064e576040517f08c379a000000000000000000000000000000000000000000000000000000000815260040161064590611c6d565b60405180910390fd5b6000620186a0600260646106629190611b81565b836003015484600001546106769190611c8d565b6106809190611c8d565b61068a9190611cfe565b905080600160003373ffffffffffffffffffffffffffffffffffffffff1673ffffffffffffffffffffffffffffffffffffffff16815260200190815260200160002060008282546106db9190611d2f565b9250508190555060008260050160006101000a81548160ff02191690831515021790555060018260050160016101000a81548160ff0219169083151502179055508082600601819055503373ffffffffffffffffffffffffffffffffffffffff167f9484b73337c50c203cfa2332d7c26aba585df546b51be72822aa30eaae6eb60a60018360405161076e929190611d63565b60405180910390a25050565b610782611698565b6000808373ffffffffffffffffffffffffffffffffffffffff1673ffffffffffffffffffffffffffffffffffffffff16815260200190815260200160002060405180610120016040529081600082015481526020016001820180548060200260200160405190810160405280929190818152602001828054801561082557602002820191906000526020600020905b815481526020019060010190808311610811575b505050505081526020016002820180548060200260200160405190810160405280929190818152602001828054801561087d57602002820191906000526020600020905b815481526020019060010190808311610869575b5050505050815260200160038201548152602001600482015481526020016005820160009054906101000a900460ff161515151581526020016005820160019054906101000a900460ff16151515158152602001600682015481526020016007820154815250509050919050565b678ac7230489e8000081565b600281565b600a81565b601981565b6000803373ffffffffffffffffffffffffffffffffffffffff1673ffffffffffffffffffffffffffffffffffffffff16815260200190815260200160002060050160009054906101000a900460ff16610994576040517f08c379a000000000000000000000000000000000000000000000000000000000815260040161098b90611c01565b60405180910390fd5b601981106109d7576040517f08c379a00000000000000000000000000000000000000000000000000000000081526004016109ce90611dd8565b60405180910390fd5b6109e081611133565b15610a20576040517f08c379a0000000000000000000000000000000000000000000000000000000008152600401610a1790611e44565b60405180910390fd5b60008060003373ffffffffffffffffffffffffffffffffffffffff1673ffffffffffffffffffffffffffffffffffffffff16815260200190815260200160002090506000610a6d836111d3565b90508015610b665760008260050160006101000a81548160ff02191690831515021790555060008260050160016101000a81548160ff021916908315150217905550600082600601819055503373ffffffffffffffffffffffffffffffffffffffff167fba1901e708c80fcc9a7a789107fb7aec0483bc6b96e4ba3a816a7acfd2f46c008460018560030154604051610b0893929190611e64565b60405180910390a23373ffffffffffffffffffffffffffffffffffffffff167f9484b73337c50c203cfa2332d7c26aba585df546b51be72822aa30eaae6eb60a600080604051610b59929190611ee0565b60405180910390a2610c3b565b81600201839080600181540180825580915050600190039060005260206000200160009091909190915055816004016000815480929190610ba690611f09565b9190505550610bb88260040154611273565b82600301819055503373ffffffffffffffffffffffffffffffffffffffff167fba1901e708c80fcc9a7a789107fb7aec0483bc6b96e4ba3a816a7acfd2f46c008460008560030154604051610c0f93929190611e64565b60405180910390a2600a6019610c259190611b81565b826004015403610c3a57610c3960016112b2565b5b5b505050565b6000803373ffffffffffffffffffffffffffffffffffffffff1673ffffffffffffffffffffffffffffffffffffffff168152602001908152602001600020600080820160009055600182016000610c9791906116e8565b600282016000610ca791906116e8565b600382016000905560048201600090556005820160006101000a81549060ff02191690556005820160016101000a81549060ff02191690556006820160009055600782016000905550506000600160003373ffffffffffffffffffffffffffffffffffffffff1673ffffffffffffffffffffffffffffffffffffffff16815260200190815260200160002081905550565b60006020528060005260406000206000915090508060000154908060030154908060040154908060050160009054906101000a900460ff16908060050160019054906101000a900460ff16908060060154908060070154905087565b6000600160008373ffffffffffffffffffffffffffffffffffffffff1673ffffffffffffffffffffffffffffffffffffffff168152602001908152602001600020549050919050565b3466038d7ea4c68000811015610e28576040517f08c379a0000000000000000000000000000000000000000000000000000000008152600401610e1f90611f9d565b60405180910390fd5b678ac7230489e80000811115610e73576040517f08c379a0000000000000000000000000000000000000000000000000000000008152600401610e6a90612009565b60405180910390fd5b6000803373ffffffffffffffffffffffffffffffffffffffff1673ffffffffffffffffffffffffffffffffffffffff16815260200190815260200160002060050160009054906101000a900460ff1615610f02576040517f08c379a0000000000000000000000000000000000000000000000000000000008152600401610ef990612075565b60405180910390fd5b6000610f0e3342611426565b9050604051806101200160405280348152602001828152602001600067ffffffffffffffff811115610f4357610f42612095565b5b604051908082528060200260200182016040528015610f715781602001602082028036833780820191505090505b5081526020016103e881526020016000815260200160011515815260200160001515815260200160008152602001428152506000803373ffffffffffffffffffffffffffffffffffffffff1673ffffffffffffffffffffffffffffffffffffffff168152602001908152602001600020600082015181600001556020820151816001019080519060200190611007929190611709565b506040820151816002019080519060200190611024929190611709565b50606082015181600301556080820151816004015560a08201518160050160006101000a81548160ff02191690831515021790555060c08201518160050160016101000a81548160ff02191690831515021790555060e0820151816006015561010082015181600701559050503373ffffffffffffffffffffffffffffffffffffffff167f43e08d78302cdf9c94e1ffd293c2a3696139ee41cf3199b6f5eed9c7f6cc6090346040516110d7919061181c565b60405180910390a23373ffffffffffffffffffffffffffffffffffffffff167fbcd153a60d9be8172ab7b030cdfb22d6c1a6304bd9841a6c170fad48f83f2d573483604051611127929190612133565b60405180910390a25050565b6000806000803373ffffffffffffffffffffffffffffffffffffffff1673ffffffffffffffffffffffffffffffffffffffff168152602001908152602001600020905060005b81600201805490508110156111c7578382600201828154811061119f5761119e612163565b5b9060005260206000200154036111ba576001925050506111ce565b8080600101915050611179565b5060009150505b919050565b6000806000803373ffffffffffffffffffffffffffffffffffffffff1673ffffffffffffffffffffffffffffffffffffffff168152602001908152602001600020905060005b8160010180549050811015611267578382600101828154811061123f5761123e612163565b5b90600052602060002001540361125a5760019250505061126e565b8080600101915050611219565b5060009150505b919050565b6000808203611286576103e890506112ad565b6000611291836115fb565b90506000816305d75c806112a59190611cfe565b905080925050505b919050565b60008060003373ffffffffffffffffffffffffffffffffffffffff1673ffffffffffffffffffffffffffffffffffffffff168152602001908152602001600020905060008160050160006101000a81548160ff021916908315150217905550818160050160016101000a81548160ff021916908315150217905550600082156113c857620186a0600260646113479190611b81565b8360030154846000015461135b9190611c8d565b6113659190611c8d565b61136f9190611cfe565b905080600160003373ffffffffffffffffffffffffffffffffffffffff1673ffffffffffffffffffffffffffffffffffffffff16815260200190815260200160002060008282546113c09190611d2f565b925050819055505b8082600601819055503373ffffffffffffffffffffffffffffffffffffffff167f9484b73337c50c203cfa2332d7c26aba585df546b51be72822aa30eaae6eb60a8483604051611419929190611d63565b60405180910390a2505050565b60606000600a67ffffffffffffffff81111561144557611444612095565b5b6040519080825280602002602001820160405280156114735781602001602082028036833780820191505090505b5090506000601967ffffffffffffffff81111561149357611492612095565b5b6040519080825280602002602001820160405280156114c15781602001602082028036833780820191505090505b50905060005b60198110156114fd57808282815181106114e4576114e3612163565b5b60200260200101818152505080806001019150506114c7565b5060005b600a8110156115ef5760008160196115199190611b81565b8787844260405160200161153094939291906121fb565b6040516020818303038152906040528051906020012060001c6115539190612249565b905082818151811061156857611567612163565b5b602002602001015184838151811061158357611582612163565b5b60200260200101818152505082600183601961159f9190611b81565b6115a99190611b81565b815181106115ba576115b9612163565b5b60200260200101518382815181106115d5576115d4612163565b5b602002602001018181525050508080600101915050611501565b50819250505092915050565b600080820361160f57620f42409050611693565b60006001905060006001905060005b848110156116735780600a60196116359190611b81565b61163f9190611b81565b8361164a9190611c8d565b92508060196116599190611b81565b826116649190611c8d565b9150808060010191505061161e565b5080620f4240836116849190611c8d565b61168e9190611cfe565b925050505b919050565b604051806101200160405280600081526020016060815260200160608152602001600081526020016000815260200160001515815260200160001515815260200160008152602001600081525090565b50805460008255906000526020600020908101906117069190611756565b50565b828054828255906000526020600020908101928215611745579160200282015b82811115611744578251825591602001919060010190611729565b5b5090506117529190611756565b5090565b5b8082111561176f576000816000905550600101611757565b5090565b600080fd5b600073ffffffffffffffffffffffffffffffffffffffff82169050919050565b60006117a382611778565b9050919050565b6117b381611798565b81146117be57600080fd5b50565b6000813590506117d0816117aa565b92915050565b6000602082840312156117ec576117eb611773565b5b60006117fa848285016117c1565b91505092915050565b6000819050919050565b61181681611803565b82525050565b6000602082019050611831600083018461180d565b92915050565b61184081611803565b82525050565b600081519050919050565b600082825260208201905092915050565b6000819050602082019050919050565b600061187e8383611837565b60208301905092915050565b6000602082019050919050565b60006118a282611846565b6118ac8185611851565b93506118b783611862565b8060005b838110156118e85781516118cf8882611872565b97506118da8361188a565b9250506001810190506118bb565b5085935050505092915050565b60008115159050919050565b61190a816118f5565b82525050565b6000610120830160008301516119296000860182611837565b50602083015184820360208601526119418282611897565b9150506040830151848203604086015261195b8282611897565b91505060608301516119706060860182611837565b5060808301516119836080860182611837565b5060a083015161199660a0860182611901565b5060c08301516119a960c0860182611901565b5060e08301516119bc60e0860182611837565b506101008301516119d1610100860182611837565b508091505092915050565b600060208201905081810360008301526119f68184611910565b905092915050565b611a0781611803565b8114611a1257600080fd5b50565b600081359050611a24816119fe565b92915050565b600060208284031215611a4057611a3f611773565b5b6000611a4e84828501611a15565b91505092915050565b611a60816118f5565b82525050565b600060e082019050611a7b600083018a61180d565b611a88602083018961180d565b611a95604083018861180d565b611aa26060830187611a57565b611aaf6080830186611a57565b611abc60a083018561180d565b611ac960c083018461180d565b98975050505050505050565b600082825260208201905092915050565b7f4e6f2077696e6e696e677320746f207769746864726177000000000000000000600082015250565b6000611b1c601783611ad5565b9150611b2782611ae6565b602082019050919050565b60006020820190508181036000830152611b4b81611b0f565b9050919050565b7f4e487b7100000000000000000000000000000000000000000000000000000000600052601160045260246000fd5b6000611b8c82611803565b9150611b9783611803565b9250828203905081811115611baf57611bae611b52565b5b92915050565b7f4e6f206163746976652067616d65000000000000000000000000000000000000600082015250565b6000611beb600e83611ad5565b9150611bf682611bb5565b602082019050919050565b60006020820190508181036000830152611c1a81611bde565b9050919050565b7f4e6f2074696c65732072657665616c6564000000000000000000000000000000600082015250565b6000611c57601183611ad5565b9150611c6282611c21565b602082019050919050565b60006020820190508181036000830152611c8681611c4a565b9050919050565b6000611c9882611803565b9150611ca383611803565b9250828202611cb181611803565b91508282048414831517611cc857611cc7611b52565b5b5092915050565b7f4e487b7100000000000000000000000000000000000000000000000000000000600052601260045260246000fd5b6000611d0982611803565b9150611d1483611803565b925082611d2457611d23611ccf565b5b828204905092915050565b6000611d3a82611803565b9150611d4583611803565b9250828201905080821115611d5d57611d5c611b52565b5b92915050565b6000604082019050611d786000830185611a57565b611d85602083018461180d565b9392505050565b7f496e76616c696420706f736974696f6e00000000000000000000000000000000600082015250565b6000611dc2601083611ad5565b9150611dcd82611d8c565b602082019050919050565b60006020820190508181036000830152611df181611db5565b9050919050565b7f54696c6520616c72656164792072657665616c65640000000000000000000000600082015250565b6000611e2e601583611ad5565b9150611e3982611df8565b602082019050919050565b60006020820190508181036000830152611e5d81611e21565b9050919050565b6000606082019050611e79600083018661180d565b611e866020830185611a57565b611e93604083018461180d565b949350505050565b6000819050919050565b6000819050919050565b6000611eca611ec5611ec084611e9b565b611ea5565b611803565b9050919050565b611eda81611eaf565b82525050565b6000604082019050611ef56000830185611a57565b611f026020830184611ed1565b9392505050565b6000611f1482611803565b91507fffffffffffffffffffffffffffffffffffffffffffffffffffffffffffffffff8203611f4657611f45611b52565b5b600182019050919050565b7f42657420746f6f20736d616c6c00000000000000000000000000000000000000600082015250565b6000611f87600d83611ad5565b9150611f9282611f51565b602082019050919050565b60006020820190508181036000830152611fb681611f7a565b9050919050565b7f42657420746f6f206c6172676500000000000000000000000000000000000000600082015250565b6000611ff3600d83611ad5565b9150611ffe82611fbd565b602082019050919050565b6000602082019050818103600083015261202281611fe6565b9050919050565b7f47616d6520616c726561647920696e2070726f67726573730000000000000000600082015250565b600061205f601883611ad5565b915061206a82612029565b602082019050919050565b6000602082019050818103600083015261208e81612052565b9050919050565b7f4e487b7100000000000000000000000000000000000000000000000000000000600052604160045260246000fd5b600082825260208201905092915050565b60006120e082611846565b6120ea81856120c4565b93506120f583611862565b8060005b8381101561212657815161210d8882611872565b97506121188361188a565b9250506001810190506120f9565b5085935050505092915050565b6000604082019050612148600083018561180d565b818103602083015261215a81846120d5565b90509392505050565b7f4e487b7100000000000000000000000000000000000000000000000000000000600052603260045260246000fd5b60008160601b9050919050565b60006121aa82612192565b9050919050565b60006121bc8261219f565b9050919050565b6121d46121cf82611798565b6121b1565b82525050565b6000819050919050565b6121f56121f082611803565b6121da565b82525050565b600061220782876121c3565b60148201915061221782866121e4565b60208201915061222782856121e4565b60208201915061223782846121e4565b60208201915081905095945050505050565b600061225482611803565b915061225f83611803565b92508261226f5761226e611ccf565b5b82820690509291505056fea26469706673582212200729ce30b1c8ccf3d7cde5441a79358a9c09bf3bce99474661cb25f67f346ebf64736f6c634300081c0033",
  "linkReferences": {},
  "deployedLinkReferences": {}
}