{
  "_format": "hh-sol-artifact-1",
  "contractName": "SpinWheel",
  "sourceName": "contracts/SpinWheel.sol",
  "abi": [
    {
      "anonymous": false,
      "inputs": [
        {
          "indexed": true,
          "internalType": "address",
          "name": "player",
          "type": "address"
        },
        {
          "indexed": false,
          "internalType": "uint256",
          "name": "amount",
          "type": "uint256"
        },
        {
          "indexed": false,
          "internalType": "uint256",
          "name": "riskLevel",
          "type": "uint256"
        }
      ],
      "name": "BetPlaced",
      "type": "event"
    },
    {
      "anonymous": false,
      "inputs": [
        {
          "indexed": true,
          "internalType": "address",
          "name": "player",
          "type": "address"
        },
        {
          "indexed": false,
          "internalType": "uint256",
          "name": "amount",
          "type": "uint256"
        }
      ],
      "name": "CashOut",
      "type": "event"
    },
    {
      "anonymous": false,
      "inputs": [
        {
          "indexed": true,
          "internalType": "address",
          "name": "player",
          "type": "address"
        },
        {
          "indexed": false,
          "internalType": "uint256",
          "name": "bet",
          "type": "uint256"
        },
        {
          "indexed": false,
          "internalType": "uint256",
          "name": "result",
          "type": "uint256"
        },
        {
          "indexed": false,
          "internalType": "uint256",
          "name": "multiplier",
          "type": "uint256"
        },
        {
          "indexed": false,
          "internalType": "bool",
          "name": "isWin",
          "type": "bool"
        },
        {
          "indexed": false,
          "internalType": "uint256",
          "name": "winAmount",
          "type": "uint256"
        }
      ],
      "name": "SpinWheelSpun",
      "type": "event"
    },
    {
      "inputs": [],
      "name": "HOUSE_EDGE",
      "outputs": [
        {
          "internalType": "uint256",
          "name": "",
          "type": "uint256"
        }
      ],
      "stateMutability": "view",
      "type": "function"
    },
    {
      "inputs": [],
      "name": "MAX_BET",
      "outputs": [
        {
          "internalType": "uint256",
          "name": "",
          "type": "uint256"
        }
      ],
      "stateMutability": "view",
      "type": "function"
    },
    {
      "inputs": [],
      "name": "MIN_BET",
      "outputs": [
        {
          "internalType": "uint256",
          "name": "",
          "type": "uint256"
        }
      ],
      "stateMutability": "view",
      "type": "function"
    },
    {
      "inputs": [
        {
          "internalType": "address",
          "name": "",
          "type": "address"
        }
      ],
      "name": "activeGames",
      "outputs": [
        {
          "internalType": "uint256",
          "name": "bet",
          "type": "uint256"
        },
        {
          "internalType": "uint256",
          "name": "riskLevel",
          "type": "uint256"
        },
        {
          "internalType": "uint256",
          "name": "result",
          "type": "uint256"
        },
        {
          "internalType": "uint256",
          "name": "multiplier",
          "type": "uint256"
        },
        {
          "internalType": "bool",
          "name": "isWin",
          "type": "bool"
        },
        {
          "internalType": "uint256",
          "name": "winAmount",
          "type": "uint256"
        },
        {
          "internalType": "bool",
          "name": "isActive",
          "type": "bool"
        },
        {
          "internalType": "uint256",
          "name": "timestamp",
          "type": "uint256"
        }
      ],
      "stateMutability": "view",
      "type": "function"
    },
    {
      "inputs": [],
      "name": "cashOut",
      "outputs": [],
      "stateMutability": "nonpayable",
      "type": "function"
    },
    {
      "inputs": [
        {
          "internalType": "address",
          "name": "player",
          "type": "address"
        }
      ],
      "name": "getActiveGame",
      "outputs": [
        {
          "components": [
            {
              "internalType": "uint256",
              "name": "bet",
              "type": "uint256"
            },
            {
              "internalType": "uint256",
              "name": "riskLevel",
              "type": "uint256"
            },
            {
              "internalType": "uint256",
              "name": "result",
              "type": "uint256"
            },
            {
              "internalType": "uint256",
              "name": "multiplier",
              "type": "uint256"
            },
            {
              "internalType": "bool",
              "name": "isWin",
              "type": "bool"
            },
            {
              "internalType": "uint256",
              "name": "winAmount",
              "type": "uint256"
            },
            {
              "internalType": "bool",
              "name": "isActive",
              "type": "bool"
            },
            {
              "internalType": "uint256",
              "name": "timestamp",
              "type": "uint256"
            }
          ],
          "internalType": "struct SpinWheel.Game",
          "name": "",
          "type": "tuple"
        }
      ],
      "stateMutability": "view",
      "type": "function"
    },
    {
      "inputs": [],
      "name": "getContractBalance",
      "outputs": [
        {
          "internalType": "uint256",
          "name": "",
          "type": "uint256"
        }
      ],
      "stateMutability": "view",
      "type": "function"
    },
    {
      "inputs": [
        {
          "internalType": "uint256",
          "name": "riskLevel",
          "type": "uint256"
        }
      ],
      "name": "getMultipliers",
      "outputs": [
        {
          "internalType": "uint256[3]",
          "name": "",
          "type": "uint256[3]"
        }
      ],
      "stateMutability": "view",
      "type": "function"
    },
    {
      "inputs": [
        {
          "internalType": "address",
          "name": "player",
          "type": "address"
        }
      ],
      "name": "getPlayerBalance",
      "outputs": [
        {
          "internalType": "uint256",
          "name": "",
          "type": "uint256"
        }
      ],
      "stateMutability": "view",
      "type": "function"
    },
    {
      "inputs": [
        {
          "internalType": "uint256",
          "name": "",
          "type": "uint256"
        },
        {
          "internalType": "uint256",
          "name": "",
          "type": "uint256"
        }
      ],
      "name": "multipliers",
      "outputs": [
        {
          "internalType": "uint256",
          "name": "",
          "type": "uint256"
        }
      ],
      "stateMutability": "view",
      "type": "function"
    },
    {
      "inputs": [
        {
          "internalType": "uint256",
          "name": "riskLevel",
          "type": "uint256"
        }
      ],
      "name": "placeBet",
      "outputs": [],
      "stateMutability": "payable",
      "type": "function"
    },
    {
      "inputs": [
        {
          "internalType": "address",
          "name": "",
          "type": "address"
        }
      ],
      "name": "playerBalance",
      "outputs": [
        {
          "internalType": "uint256",
          "name": "",
          "type": "uint256"
        }
      ],
      "stateMutability": "view",
      "type": "function"
    },
    {
      "inputs": [],
      "name": "resetGame",
      "outputs": [],
      "stateMutability": "nonpayable",
      "type": "function"
    },
    {
      "inputs": [],
      "name": "spinWheel",
      "outputs": [],
      "stateMutability": "nonpayable",
      "type": "function"
    }
  ],
  "bytecode": "0x608060405260405180606001604052806040518060600160405280600260ff168152602001600360ff168152602001600560ff1681525081526020016040518060600160405280600560ff168152602001600a60ff168152602001601460ff1681525081526020016040518060600160405280601460ff168152602001603260ff168152602001606460ff1681525081525060029060036100a19291906100b4565b503480156100ae57600080fd5b5061019f565b826003800281019282156100f3579160200282015b828111156100f2578251829060036100e2929190610104565b50916020019190600301906100c9565b5b5090506101009190610149565b5090565b8260038101928215610138579160200282015b82811115610137578251829060ff16905591602001919060010190610117565b5b509050610145919061016d565b5090565b5b808211156101695760008181610160919061018a565b5060030161014a565b5090565b5b8082111561018657600081600090555060010161016e565b5090565b50600081556001016000815560010160009055565b611793806101ae6000396000f3fe6080604052600436106100dd5760003560e01c80637bf773451161007f578063bb47221911610059578063bb4722191461028f578063ca0a4126146102a6578063d9169b77146102e3578063e2734c9314610327576100dd565b80637bf77345146101fc5780637e95b523146102395780638daaaa2f14610264576100dd565b80634e33f83b116100bb5780634e33f83b146101525780636540742f1461018f5780636f9fb98a146101ba578063793cd71e146101e5576100dd565b80630a5a72c7146100e257806310fe7c481461011f57806315ecef921461013b575b600080fd5b3480156100ee57600080fd5b5061010960048036038101906101049190610ebb565b610364565b6040516101169190610f93565b60405180910390f35b61013960048036038101906101349190610ebb565b61040a565b005b34801561014757600080fd5b506101506106c7565b005b34801561015e57600080fd5b506101796004803603810190610174919061100c565b610935565b6040516101869190611048565b60405180910390f35b34801561019b57600080fd5b506101a461094d565b6040516101b19190611048565b60405180910390f35b3480156101c657600080fd5b506101cf610959565b6040516101dc9190611048565b60405180910390f35b3480156101f157600080fd5b506101fa610961565b005b34801561020857600080fd5b50610223600480360381019061021e919061100c565b610ac5565b6040516102309190611120565b60405180910390f35b34801561024557600080fd5b5061024e610b90565b60405161025b9190611048565b60405180910390f35b34801561027057600080fd5b50610279610b9d565b6040516102869190611048565b60405180910390f35b34801561029b57600080fd5b506102a4610ba2565b005b3480156102b257600080fd5b506102cd60048036038101906102c8919061113c565b610c82565b6040516102da9190611048565b60405180910390f35b3480156102ef57600080fd5b5061030a6004803603810190610305919061100c565b610cb0565b60405161031e98979695949392919061118b565b60405180910390f35b34801561033357600080fd5b5061034e6004803603810190610349919061100c565b610d12565b60405161035b9190611048565b60405180910390f35b61036c610e15565b600382106103af576040517f08c379a00000000000000000000000000000000000000000000000000000000081526004016103a690611266565b60405180910390fd5b600282600381106103c3576103c2611286565b5b600302016003806020026040519081016040528092919082600380156103fe576020028201915b8154815260200190600101908083116103ea575b50505050509050919050565b34670de0b6b3a7640000811015610456576040517f08c379a000000000000000000000000000000000000000000000000000000000815260040161044d90611301565b60405180910390fd5b68056bc75e2d631000008111156104a2576040517f08c379a00000000000000000000000000000000000000000000000000000000081526004016104999061136d565b60405180910390fd5b6000803373ffffffffffffffffffffffffffffffffffffffff1673ffffffffffffffffffffffffffffffffffffffff16815260200190815260200160002060060160009054906101000a900460ff1615610531576040517f08c379a0000000000000000000000000000000000000000000000000000000008152600401610528906113d9565b60405180910390fd5b60038210610574576040517f08c379a000000000000000000000000000000000000000000000000000000000815260040161056b90611266565b60405180910390fd5b604051806101000160405280348152602001838152602001600081526020016000815260200160001515815260200160008152602001600115158152602001428152506000803373ffffffffffffffffffffffffffffffffffffffff1673ffffffffffffffffffffffffffffffffffffffff1681526020019081526020016000206000820151816000015560208201518160010155604082015181600201556060820151816003015560808201518160040160006101000a81548160ff02191690831515021790555060a0820151816005015560c08201518160060160006101000a81548160ff02191690831515021790555060e082015181600701559050503373ffffffffffffffffffffffffffffffffffffffff167e1ecf1d0c4d22f324b3ecb9cdf0e5f772bc74ac104e6626f4b3845433d0310534846040516106bb9291906113f9565b60405180910390a25050565b6000803373ffffffffffffffffffffffffffffffffffffffff1673ffffffffffffffffffffffffffffffffffffffff16815260200190815260200160002060060160009054906101000a900460ff16610755576040517f08c379a000000000000000000000000000000000000000000000000000000000815260040161074c9061146e565b60405180910390fd5b60008060003373ffffffffffffffffffffffffffffffffffffffff1673ffffffffffffffffffffffffffffffffffffffff168152602001908152602001600020905060006107a33342610d5b565b9050600060028360010154600381106107bf576107be611286565b5b6003020182600381106107d5576107d4611286565b5b0154905081836002018190555080836003018190555060006107fb846001015484610d9f565b9050600081156108925760646002606461081591906114bd565b84876000015461082591906114f1565b61082f91906114f1565b6108399190611562565b905080600160003373ffffffffffffffffffffffffffffffffffffffff1673ffffffffffffffffffffffffffffffffffffffff168152602001908152602001600020600082825461088a9190611593565b925050819055505b818560040160006101000a81548160ff02191690831515021790555080856005018190555060008560060160006101000a81548160ff0219169083151502179055503373ffffffffffffffffffffffffffffffffffffffff167f81d9ad09abf5b0d7f7b4f7ef674ea1e7a7c7df2050b732409539ed6560b15c638660000154868686866040516109269594939291906115c7565b60405180910390a25050505050565b60016020528060005260406000206000915090505481565b670de0b6b3a764000081565b600047905090565b6000600160003373ffffffffffffffffffffffffffffffffffffffff1673ffffffffffffffffffffffffffffffffffffffff168152602001908152602001600020549050600081116109e8576040517f08c379a00000000000000000000000000000000000000000000000000000000081526004016109df90611666565b60405180910390fd5b6000600160003373ffffffffffffffffffffffffffffffffffffffff1673ffffffffffffffffffffffffffffffffffffffff168152602001908152602001600020819055503373ffffffffffffffffffffffffffffffffffffffff166108fc829081150290604051600060405180830381858888f19350505050158015610a73573d6000803e3d6000fd5b503373ffffffffffffffffffffffffffffffffffffffff167fab933177d8753a66dd869151cf9aa88649e067b7a4e2dad9d5d192d61cf593b082604051610aba9190611048565b60405180910390a250565b610acd610e37565b6000808373ffffffffffffffffffffffffffffffffffffffff1673ffffffffffffffffffffffffffffffffffffffff16815260200190815260200160002060405180610100016040529081600082015481526020016001820154815260200160028201548152602001600382015481526020016004820160009054906101000a900460ff16151515158152602001600582015481526020016006820160009054906101000a900460ff161515151581526020016007820154815250509050919050565b68056bc75e2d6310000081565b600281565b6000803373ffffffffffffffffffffffffffffffffffffffff1673ffffffffffffffffffffffffffffffffffffffff1681526020019081526020016000206000808201600090556001820160009055600282016000905560038201600090556004820160006101000a81549060ff021916905560058201600090556006820160006101000a81549060ff0219169055600782016000905550506000600160003373ffffffffffffffffffffffffffffffffffffffff1673ffffffffffffffffffffffffffffffffffffffff16815260200190815260200160002081905550565b60028260038110610c9257600080fd5b600302018160038110610ca457600080fd5b01600091509150505481565b60006020528060005260406000206000915090508060000154908060010154908060020154908060030154908060040160009054906101000a900460ff16908060050154908060060160009054906101000a900460ff16908060070154905088565b6000600160008373ffffffffffffffffffffffffffffffffffffffff1673ffffffffffffffffffffffffffffffffffffffff168152602001908152602001600020549050919050565b60006003838342604051602001610d74939291906116ef565b6040516020818303038152906040528051906020012060001c610d97919061172c565b905092915050565b60008060008403610db357603c9050610dca565b60018403610dc457601e9050610dc9565b600a90505b5b60006064334286604051602001610de3939291906116ef565b6040516020818303038152906040528051906020012060001c610e06919061172c565b90508181109250505092915050565b6040518060600160405280600390602082028036833780820191505090505090565b6040518061010001604052806000815260200160008152602001600081526020016000815260200160001515815260200160008152602001600015158152602001600081525090565b600080fd5b6000819050919050565b610e9881610e85565b8114610ea357600080fd5b50565b600081359050610eb581610e8f565b92915050565b600060208284031215610ed157610ed0610e80565b5b6000610edf84828501610ea6565b91505092915050565b600060039050919050565b600081905092915050565b6000819050919050565b610f1181610e85565b82525050565b6000610f238383610f08565b60208301905092915050565b6000602082019050919050565b610f4581610ee8565b610f4f8184610ef3565b9250610f5a82610efe565b8060005b83811015610f8b578151610f728782610f17565b9650610f7d83610f2f565b925050600181019050610f5e565b505050505050565b6000606082019050610fa86000830184610f3c565b92915050565b600073ffffffffffffffffffffffffffffffffffffffff82169050919050565b6000610fd982610fae565b9050919050565b610fe981610fce565b8114610ff457600080fd5b50565b60008135905061100681610fe0565b92915050565b60006020828403121561102257611021610e80565b5b600061103084828501610ff7565b91505092915050565b61104281610e85565b82525050565b600060208201905061105d6000830184611039565b92915050565b60008115159050919050565b61107881611063565b82525050565b610100820160008201516110956000850182610f08565b5060208201516110a86020850182610f08565b5060408201516110bb6040850182610f08565b5060608201516110ce6060850182610f08565b5060808201516110e1608085018261106f565b5060a08201516110f460a0850182610f08565b5060c082015161110760c085018261106f565b5060e082015161111a60e0850182610f08565b50505050565b600061010082019050611136600083018461107e565b92915050565b6000806040838503121561115357611152610e80565b5b600061116185828601610ea6565b925050602061117285828601610ea6565b9150509250929050565b61118581611063565b82525050565b6000610100820190506111a1600083018b611039565b6111ae602083018a611039565b6111bb6040830189611039565b6111c86060830188611039565b6111d5608083018761117c565b6111e260a0830186611039565b6111ef60c083018561117c565b6111fc60e0830184611039565b9998505050505050505050565b600082825260208201905092915050565b7f496e76616c6964207269736b206c6576656c0000000000000000000000000000600082015250565b6000611250601283611209565b915061125b8261121a565b602082019050919050565b6000602082019050818103600083015261127f81611243565b9050919050565b7f4e487b7100000000000000000000000000000000000000000000000000000000600052603260045260246000fd5b7f42657420746f6f20736d616c6c00000000000000000000000000000000000000600082015250565b60006112eb600d83611209565b91506112f6826112b5565b602082019050919050565b6000602082019050818103600083015261131a816112de565b9050919050565b7f42657420746f6f206c6172676500000000000000000000000000000000000000600082015250565b6000611357600d83611209565b915061136282611321565b602082019050919050565b600060208201905081810360008301526113868161134a565b9050919050565b7f47616d6520616c726561647920696e2070726f67726573730000000000000000600082015250565b60006113c3601883611209565b91506113ce8261138d565b602082019050919050565b600060208201905081810360008301526113f2816113b6565b9050919050565b600060408201905061140e6000830185611039565b61141b6020830184611039565b9392505050565b7f4e6f206163746976652067616d65000000000000000000000000000000000000600082015250565b6000611458600e83611209565b915061146382611422565b602082019050919050565b600060208201905081810360008301526114878161144b565b9050919050565b7f4e487b7100000000000000000000000000000000000000000000000000000000600052601160045260246000fd5b60006114c882610e85565b91506114d383610e85565b92508282039050818111156114eb576114ea61148e565b5b92915050565b60006114fc82610e85565b915061150783610e85565b925082820261151581610e85565b9150828204841483151761152c5761152b61148e565b5b5092915050565b7f4e487b7100000000000000000000000000000000000000000000000000000000600052601260045260246000fd5b600061156d82610e85565b915061157883610e85565b92508261158857611587611533565b5b828204905092915050565b600061159e82610e85565b91506115a983610e85565b92508282019050808211156115c1576115c061148e565b5b92915050565b600060a0820190506115dc6000830188611039565b6115e96020830187611039565b6115f66040830186611039565b611603606083018561117c565b6116106080830184611039565b9695505050505050565b7f4e6f2077696e6e696e677320746f2063617368206f7574000000000000000000600082015250565b6000611650601783611209565b915061165b8261161a565b602082019050919050565b6000602082019050818103600083015261167f81611643565b9050919050565b60008160601b9050919050565b600061169e82611686565b9050919050565b60006116b082611693565b9050919050565b6116c86116c382610fce565b6116a5565b82525050565b6000819050919050565b6116e96116e482610e85565b6116ce565b82525050565b60006116fb82866116b7565b60148201915061170b82856116d8565b60208201915061171b82846116d8565b602082019150819050949350505050565b600061173782610e85565b915061174283610e85565b92508261175257611751611533565b5b82820690509291505056fea2646970667358221220644c80a7bbcb7d018780ab63029c3758fe3d62d8e1b488ac39b2068d5593996a64736f6c634300081c0033",
  "linkReferences": {},
  "deployedLinkReferences": {}
}